{"contracts/VotingRegistration.sol":{"VotingRegistration":{"abi":[{"inputs":[{"internalType":"uint256","name":"_registrationDuration","type":"uint256"},{"internalType":"uint256","name":"_submissionDuration","type":"uint256"},{"internalType":"uint256","name":"_votingDuration","type":"uint256"},{"internalType":"string[]","name":"_candidates","type":"string[]"},{"internalType":"string[]","name":"_allowedDomains","type":"string[]"}],"stateMutability":"nonpayable","type":"constructor"},{"inputs":[],"name":"EmailAlreadyRegistered","type":"error"},{"inputs":[],"name":"EmailNotRegistered","type":"error"},{"inputs":[{"internalType":"uint256","name":"required","type":"uint256"},{"internalType":"uint256","name":"available","type":"uint256"}],"name":"InsufficientFunds","type":"error"},{"inputs":[],"name":"InvalidCandidate","type":"error"},{"inputs":[],"name":"InvalidEmailDomain","type":"error"},{"inputs":[],"name":"InvalidRingSignature","type":"error"},{"inputs":[],"name":"InvalidSignature","type":"error"},{"inputs":[],"name":"InvalidSignatureLength","type":"error"},{"inputs":[],"name":"KeyImageAlreadyUsed","type":"error"},{"inputs":[],"name":"RegistrationPeriodEnded","type":"error"},{"inputs":[],"name":"SignerNotAuthorized","type":"error"},{"inputs":[],"name":"SubmissionPeriodNotActive","type":"error"},{"inputs":[],"name":"VotingKeyAlreadyUsed","type":"error"},{"inputs":[],"name":"VotingPeriodNotActive","type":"error"},{"anonymous":false,"inputs":[{"indexed":false,"internalType":"string","name":"email","type":"string"},{"indexed":false,"internalType":"string","name":"publicKey","type":"string"}],"name":"KeysGenerated","type":"event"},{"anonymous":false,"inputs":[],"name":"RegistrationEnded","type":"event"},{"anonymous":false,"inputs":[],"name":"ResultPhaseStarted","type":"event"},{"anonymous":false,"inputs":[],"name":"SubmissionEnded","type":"event"},{"anonymous":false,"inputs":[{"indexed":false,"internalType":"string","name":"candidate","type":"string"}],"name":"VoteCast","type":"event"},{"anonymous":false,"inputs":[],"name":"VotingEnded","type":"event"},{"anonymous":false,"inputs":[{"indexed":false,"internalType":"string","name":"votingPublicKey","type":"string"}],"name":"VotingKeySubmitted","type":"event"},{"inputs":[],"name":"CASE_ID","outputs":[{"internalType":"string","name":"","type":"string"}],"stateMutability":"view","type":"function"},{"inputs":[],"name":"ELECTION_AUTHORITY","outputs":[{"internalType":"address","name":"","type":"address"}],"stateMutability":"view","type":"function"},{"inputs":[],"name":"ELECTION_AUTHORITY_PUBLIC_KEY","outputs":[{"internalType":"string","name":"","type":"string"}],"stateMutability":"view","type":"function"},{"inputs":[],"name":"MINIMUM_BALANCE","outputs":[{"internalType":"uint256","name":"","type":"uint256"}],"stateMutability":"view","type":"function"},{"inputs":[],"name":"admin","outputs":[{"internalType":"address","name":"","type":"address"}],"stateMutability":"view","type":"function"},{"inputs":[{"internalType":"uint256","name":"","type":"uint256"}],"name":"candidates","outputs":[{"internalType":"string","name":"name","type":"string"},{"internalType":"uint256","name":"voteCount","type":"uint256"}],"stateMutability":"view","type":"function"},{"inputs":[{"internalType":"string","name":"candidateName","type":"string"},{"internalType":"string","name":"votingPublicKey","type":"string"},{"internalType":"bytes","name":"signature","type":"bytes"}],"name":"castVote","outputs":[],"stateMutability":"nonpayable","type":"function"},{"inputs":[],"name":"endRegistration","outputs":[],"stateMutability":"nonpayable","type":"function"},{"inputs":[],"name":"endSubmission","outputs":[],"stateMutability":"nonpayable","type":"function"},{"inputs":[],"name":"endVoting","outputs":[],"stateMutability":"nonpayable","type":"function"},{"inputs":[],"name":"getAdminBalance","outputs":[{"internalType":"uint256","name":"","type":"uint256"}],"stateMutability":"view","type":"function"},{"inputs":[],"name":"getAllEAPublicKeys","outputs":[{"internalType":"string[]","name":"","type":"string[]"}],"stateMutability":"view","type":"function"},{"inputs":[],"name":"getAllowedDomains","outputs":[{"internalType":"string[]","name":"","type":"string[]"}],"stateMutability":"view","type":"function"},{"inputs":[],"name":"getCandidates","outputs":[{"internalType":"string[]","name":"","type":"string[]"}],"stateMutability":"view","type":"function"},{"inputs":[],"name":"getCaseId","outputs":[{"internalType":"string","name":"","type":"string"}],"stateMutability":"pure","type":"function"},{"inputs":[],"name":"getCurrentPhase","outputs":[{"internalType":"string","name":"","type":"string"}],"stateMutability":"view","type":"function"},{"inputs":[],"name":"getElectionAuthorityPublicKey","outputs":[{"internalType":"string","name":"","type":"string"}],"stateMutability":"pure","type":"function"},{"inputs":[],"name":"getRegisteredEmails","outputs":[{"internalType":"string[]","name":"","type":"string[]"}],"stateMutability":"view","type":"function"},{"inputs":[],"name":"getVoteCounts","outputs":[{"components":[{"internalType":"string","name":"name","type":"string"},{"internalType":"uint256","name":"voteCount","type":"uint256"}],"internalType":"struct VotingRegistration.Candidate[]","name":"","type":"tuple[]"}],"stateMutability":"view","type":"function"},{"inputs":[{"internalType":"string","name":"email","type":"string"}],"name":"getVoterPublicKey","outputs":[{"internalType":"string","name":"","type":"string"}],"stateMutability":"view","type":"function"},{"inputs":[],"name":"getVotingKeySubmissions","outputs":[{"internalType":"string[]","name":"votingPublicKeys","type":"string[]"},{"internalType":"bytes32[]","name":"ringSignatureHashes","type":"bytes32[]"},{"internalType":"bytes32[]","name":"keyImageHashes","type":"bytes32[]"}],"stateMutability":"view","type":"function"},{"inputs":[],"name":"getVotingPubKeys","outputs":[{"internalType":"string[]","name":"","type":"string[]"}],"stateMutability":"view","type":"function"},{"inputs":[{"internalType":"string","name":"email","type":"string"}],"name":"hasGeneratedKeys","outputs":[{"internalType":"bool","name":"","type":"bool"}],"stateMutability":"view","type":"function"},{"inputs":[{"internalType":"bytes","name":"keyImage","type":"bytes"}],"name":"isKeyImageUsed","outputs":[{"internalType":"bool","name":"","type":"bool"}],"stateMutability":"view","type":"function"},{"inputs":[{"internalType":"bytes32","name":"_ethSignedMessageHash","type":"bytes32"},{"internalType":"bytes","name":"_signature","type":"bytes"}],"name":"recoverSigner","outputs":[{"internalType":"address","name":"","type":"address"}],"stateMutability":"pure","type":"function"},{"inputs":[{"internalType":"string","name":"email","type":"string"},{"internalType":"string","name":"voterPublicKey","type":"string"},{"internalType":"bytes","name":"signature","type":"bytes"}],"name":"registerVoter","outputs":[],"stateMutability":"nonpayable","type":"function"},{"inputs":[],"name":"registrationEndTime","outputs":[{"internalType":"uint256","name":"","type":"uint256"}],"stateMutability":"view","type":"function"},{"inputs":[],"name":"registrationStartTime","outputs":[{"internalType":"uint256","name":"","type":"uint256"}],"stateMutability":"view","type":"function"},{"inputs":[],"name":"submissionEndTime","outputs":[{"internalType":"uint256","name":"","type":"uint256"}],"stateMutability":"view","type":"function"},{"inputs":[{"internalType":"string","name":"votingPublicKey","type":"string"},{"internalType":"string","name":"ringSignature","type":"string"},{"internalType":"bytes","name":"keyImage","type":"bytes"},{"internalType":"address","name":"voterAddress","type":"address"}],"name":"submitVotingPublicKey","outputs":[],"stateMutability":"nonpayable","type":"function"},{"inputs":[{"internalType":"string","name":"email","type":"string"},{"internalType":"string","name":"publicKey","type":"string"},{"internalType":"bytes","name":"signature","type":"bytes"}],"name":"verifySignature","outputs":[{"internalType":"bool","name":"","type":"bool"}],"stateMutability":"pure","type":"function"},{"inputs":[],"name":"votingEndTime","outputs":[{"internalType":"uint256","name":"","type":"uint256"}],"stateMutability":"view","type":"function"},{"inputs":[{"internalType":"uint256","name":"","type":"uint256"}],"name":"votingKeySubmissions","outputs":[{"internalType":"bool","name":"isUsed","type":"bool"},{"internalType":"string","name":"votingPublicKey","type":"string"},{"internalType":"bytes32","name":"ringSignatureHash","type":"bytes32"},{"internalType":"bytes32","name":"keyImageHash","type":"bytes32"},{"internalType":"address","name":"voterAddress","type":"address"}],"stateMutability":"view","type":"function"}],"evm":{"bytecode":{"linkReferences":{},"object":"6101206040523480156200001257600080fd5b50604051620031a5380380620031a58339810160408190526200003591620003aa565b33610100524260808190526200004d90869062000449565b60a08190526200005f90859062000449565b60c08190526200007190849062000449565b60e05260005b82518110156200013e5760086040518060400160405280858481518110620000a357620000a362000465565b60209081029190910181015182526000918101829052835460018101855593825290208151919260020201908190620000dd90826200050a565b5060208201518160010155505080600984838151811062000102576200010262000465565b6020026020010151604051620001199190620005d6565b90815260405190819003602001902055806200013581620005f4565b91505062000077565b5080516200015490600090602084019062000160565b50505050505062000610565b828054828255906000526020600020908101928215620001ab579160200282015b82811115620001ab57825182906200019a90826200050a565b509160200191906001019062000181565b50620001b9929150620001bd565b5090565b80821115620001b9576000620001d48282620001de565b50600101620001bd565b508054620001ec906200047b565b6000825580601f10620001fd575050565b601f0160209004906000526020600020908101906200021d919062000220565b50565b5b80821115620001b9576000815560010162000221565b634e487b7160e01b600052604160045260246000fd5b604051601f8201601f191681016001600160401b038111828210171562000278576200027862000237565b604052919050565b60005b838110156200029d57818101518382015260200162000283565b50506000910152565b6000601f8381840112620002b957600080fd5b825160206001600160401b0380831115620002d857620002d862000237565b8260051b620002e98382016200024d565b93845286810183019383810190898611156200030457600080fd5b84890192505b858310156200039d57825184811115620003245760008081fd5b8901603f81018b13620003375760008081fd5b8581015160408682111562000350576200035062000237565b62000363828b01601f191689016200024d565b8281528d82848601011115620003795760008081fd5b6200038a838a830184870162000280565b855250505091840191908401906200030a565b9998505050505050505050565b600080600080600060a08688031215620003c357600080fd5b855160208701516040880151606089015192975090955093506001600160401b0380821115620003f257600080fd5b6200040089838a01620002a6565b935060808801519150808211156200041757600080fd5b506200042688828901620002a6565b9150509295509295909350565b634e487b7160e01b600052601160045260246000fd5b808201808211156200045f576200045f62000433565b92915050565b634e487b7160e01b600052603260045260246000fd5b600181811c908216806200049057607f821691505b602082108103620004b157634e487b7160e01b600052602260045260246000fd5b50919050565b601f8211156200050557600081815260208120601f850160051c81016020861015620004e05750805b601f850160051c820191505b818110156200050157828155600101620004ec565b5050505b505050565b81516001600160401b0381111562000526576200052662000237565b6200053e816200053784546200047b565b84620004b7565b602080601f8311600181146200057657600084156200055d5750858301515b600019600386901b1c1916600185901b17855562000501565b600085815260208120601f198616915b82811015620005a75788860151825594840194600190910190840162000586565b5085821015620005c65787850151600019600388901b60f8161c191681555b5050505050600190811b01905550565b60008251620005ea81846020870162000280565b9190910192915050565b60006001820162000609576200060962000433565b5060010190565b60805160a05160c05160e05161010051612ac4620006e16000396000818161045e0152818161049101528181610a8201528181610ad501528181610e8201528181610ed501528181611bd40152611c270152600081816102510152818161095301528181610e36015281816116f80152611ac7015260008181610300015281816108de01528181610a3601528181610e0d0152818161120001526116ab01526000818161042701528181610a0d015281816111860152818161165c0152611b8b015260006103be0152612ac46000f3fe608060405234801561001057600080fd5b50600436106101fa5760003560e01c80637282f8371161011a578063c3403ddf116100ad578063f851a4401161007c578063f851a4401461048c578063fd9d994c146104b3578063fe7565e4146104dd578063ff5c4a32146104f0578063ffc97b201461051457600080fd5b8063c3403ddf1461041a578063dff7d2c714610422578063f098be0214610449578063f40ffcfb1461045c57600080fd5b8063a3a40ea5116100e9578063a3a40ea5146103e0578063a69c02d9146103e8578063b117ac2a146103fb578063ba9bd57e1461040357600080fd5b80637282f8371461034c57806374d3734a1461037f57806397aba7f9146103a65780639af5c09d146103b957600080fd5b80633477ee2e11610192578063532eaca011610161578063532eaca0146102fb57806353498cdd14610322578063627286ba146103315780636847d7411461034457600080fd5b80633477ee2e146102b7578063392c4f34146102d85780634a8a62ab146102eb5780634f39ed7e146102f357600080fd5b80630f627c3c116101ce5780630f627c3c146102375780631ea736e01461024c5780633134549714610281578063320d48c21461029457600080fd5b80627874cb146101ff57806306a49fce1461021d578063096c89b3146102255780630b810edc1461022d575b600080fd5b610207610529565b6040516102149190612331565b60405180910390f35b610207610657565b610207610797565b6102356108dc565b005b61023f6109eb565b604051610214919061234b565b6102737f000000000000000000000000000000000000000000000000000000000000000081565b604051908152602001610214565b61023561028f3660046123a6565b610a0b565b6102a76102a236600461245f565b610d07565b6040519015158152602001610214565b6102ca6102c53660046124a0565b610d4f565b6040516102149291906124b9565b6102356102e63660046124db565b610e0b565b610235611184565b6102076112a2565b6102737f000000000000000000000000000000000000000000000000000000000000000081565b6102736702c68af0bb14000081565b6102a761033f36600461245f565b611474565b6102076114a3565b61036773ce8190e1ebe1bce6c6685ae4b2f9eee1faa906e081565b6040516001600160a01b039091168152602001610214565b60408051808201909152600b81526a65766f74696e673230323560a81b602082015261023f565b6103676103b4366004612574565b61157c565b6102737f000000000000000000000000000000000000000000000000000000000000000081565b61023f611658565b61023f6103f636600461245f565b611761565b61023f611856565b61040b611872565b604051610214939291906125fa565b610235611ac5565b6102737f000000000000000000000000000000000000000000000000000000000000000081565b6102356104573660046124db565b611b89565b7f00000000000000000000000000000000000000000000000000000000000000006001600160a01b031631610273565b6103677f000000000000000000000000000000000000000000000000000000000000000081565b61023f6040518060400160405280600b81526020016a65766f74696e673230323560a81b81525081565b6102a76104eb3660046124db565b611e6a565b6105036104fe3660046124a0565b611f2e565b60405161021495949392919061263d565b61051c612007565b604051610214919061267e565b606060006007546001600160401b03811115610547576105476126f4565b60405190808252806020026020018201604052801561057a57816020015b60608152602001906001900390816105655790505b50905060005b60075481101561065157600081815260036020526040902080546105a39061270a565b80601f01602080910402602001604051908101604052809291908181526020018280546105cf9061270a565b801561061c5780601f106105f15761010080835404028352916020019161061c565b820191906000526020600020905b8154815290600101906020018083116105ff57829003601f168201915b50505050508282815181106106335761063361273e565b602002602001018190525080806106499061276a565b915050610580565b50919050565b6008546060906000906001600160401b03811115610677576106776126f4565b6040519080825280602002602001820160405280156106aa57816020015b60608152602001906001900390816106955790505b50905060005b60085481101561065157600881815481106106cd576106cd61273e565b906000526020600020906002020160000180546106e99061270a565b80601f01602080910402602001604051908101604052809291908181526020018280546107159061270a565b80156107625780601f1061073757610100808354040283529160200191610762565b820191906000526020600020905b81548152906001019060200180831161074557829003601f168201915b50505050508282815181106107795761077961273e565b6020026020010181905250808061078f9061276a565b9150506106b0565b6005546060906000816001600160401b038111156107b7576107b76126f4565b6040519080825280602002602001820160405280156107ea57816020015b60608152602001906001900390816107d55790505b50905060005b828110156108d5576005818154811061080b5761080b61273e565b906000526020600020906005020160010180546108279061270a565b80601f01602080910402602001604051908101604052809291908181526020018280546108539061270a565b80156108a05780601f10610875576101008083540402835291602001916108a0565b820191906000526020600020905b81548152906001019060200180831161088357829003601f168201915b50505050508282815181106108b7576108b761273e565b602002602001018190525080806108cd9061276a565b9150506107f0565b5092915050565b7f00000000000000000000000000000000000000000000000000000000000000004210156109515760405162461bcd60e51b815260206004820152601f60248201527f5375626d697373696f6e20706572696f64206e6f7420656e646564207965740060448201526064015b60405180910390fd5b7f000000000000000000000000000000000000000000000000000000000000000042106109c05760405162461bcd60e51b815260206004820152601d60248201527f566f74696e6720706572696f6420616c726561647920737461727465640000006044820152606401610948565b6040517f6848cc2e2530bfa7461f82fe9638dac1c8ef8165491c232a4ef11035b9372f9790600090a1565b6060604051806080016040528060448152602001612a4b60449139905090565b7f0000000000000000000000000000000000000000000000000000000000000000421080610a5957507f00000000000000000000000000000000000000000000000000000000000000004210155b15610a775760405163473dcca360e11b815260040160405180910390fd5b6702c68af0bb1400007f00000000000000000000000000000000000000000000000000000000000000006001600160a01b0316311015610b035760405162fae2d560e21b81526702c68af0bb14000060048201526001600160a01b037f000000000000000000000000000000000000000000000000000000000000000016316024820152604401610948565b60008585604051602001610b18929190612783565b60405160208183030381529060405280519060200120905060008484604051602001610b45929190612783565b60408051601f1981840301815291815281516020928301206000818152600190935291205490915060ff1615610b8e5760405163e596f2c960e01b815260040160405180910390fd5b60056040518060a001604052806000151581526020018b8b8080601f01602080910402602001604051908101604052809392919081815260200183838082843760009201829052509385525050506020808301879052604083018690526001600160a01b038816606090930192909252835460018082018655948252908290208351600590920201805460ff1916911515919091178155908201519192909190820190610c3b90826127e2565b50604082810151600283015560608301516003830155608090920151600490910180546001600160a01b0319166001600160a01b03909216919091179055600082815260016020819052919020805460ff191682179055600554610c9f91906128a1565b60068a8a604051610cb1929190612783565b9081526020016040518091039020819055507f25fa020410f93dd67a3a159f79643d537687b863f9c07f13a0fa800d64648a1d8989604051610cf49291906128dd565b60405180910390a1505050505050505050565b6000808383604051602001610d1d929190612783565b60408051601f1981840301815291815281516020928301206000908152600190925290205460ff169150505b92915050565b60088181548110610d5f57600080fd5b9060005260206000209060020201600091509050806000018054610d829061270a565b80601f0160208091040260200160405190810160405280929190818152602001828054610dae9061270a565b8015610dfb5780601f10610dd057610100808354040283529160200191610dfb565b820191906000526020600020905b815481529060010190602001808311610dde57829003601f168201915b5050505050908060010154905082565b7f0000000000000000000000000000000000000000000000000000000000000000421080610e5957507f00000000000000000000000000000000000000000000000000000000000000004210155b15610e775760405163287a88bf60e21b815260040160405180910390fd5b6702c68af0bb1400007f00000000000000000000000000000000000000000000000000000000000000006001600160a01b0316311015610f035760405162fae2d560e21b81526702c68af0bb14000060048201526001600160a01b037f000000000000000000000000000000000000000000000000000000000000000016316024820152604401610948565b600854604051600990610f199089908990612783565b90815260200160405180910390205410610f465760405163e66ea08f60e01b815260040160405180910390fd5b600060068585604051610f5a929190612783565b9081526020016040518091039020549050600060058281548110610f8057610f8061273e565b60009182526020909120600590910201600481015481549192506001600160a01b03169060ff1615610fc45760405162836c4760e81b815260040160405180910390fd5b600089898989604051602001610fdd94939291906128f9565b60405160208183030381529060405280519060200120905060008160405160200161103491907f19457468657265756d205369676e6564204d6573736167653a0a3332000000008152601c810191909152603c0190565b604051602081830303815290604052805190602001209050600061105982898961157c565b9050836001600160a01b0316816001600160a01b0316146110ce5760405162461bcd60e51b815260206004820152602960248201527f5369676e617475726520646f6573206e6f74206d6174636820726567697374656044820152683932b2103b37ba32b960b91b6064820152608401610948565b6110d982898961157c565b50845460ff191660011785556040516008906009906110fb908f908f90612783565b9081526020016040518091039020548154811061111a5761111a61273e565b6000918252602082206001600290920201018054916111388361276a565b91905055507fdd4c99251f425e725972ff09e5348689020fce09b3b010f8573d992fe79afcf18c8c60405161116e9291906128dd565b60405180910390a1505050505050505050505050565b7f00000000000000000000000000000000000000000000000000000000000000004210156111fe5760405162461bcd60e51b815260206004820152602160248201527f526567697374726174696f6e20706572696f64206e6f7420656e6465642079656044820152601d60fa1b6064820152608401610948565b7f000000000000000000000000000000000000000000000000000000000000000042106112775760405162461bcd60e51b815260206004820152602160248201527f5375626d697373696f6e20706572696f6420616c7265616479207374617274656044820152601960fa1b6064820152608401610948565b6040517f2ee88f50f05558e39b34a18214ff6a6adc091504772084c6ce7899354bec0aa490600090a1565b606060006007546001600160401b038111156112c0576112c06126f4565b6040519080825280602002602001820160405280156112f357816020015b60608152602001906001900390816112de5790505b50905060005b600754811015610651576000818152600360205260408120805461131c9061270a565b80601f01602080910402602001604051908101604052809291908181526020018280546113489061270a565b80156113955780601f1061136a57610100808354040283529160200191611395565b820191906000526020600020905b81548152906001019060200180831161137857829003601f168201915b505050505090506004816040516113ac919061291b565b908152602001604051809103902080546113c59061270a565b80601f01602080910402602001604051908101604052809291908181526020018280546113f19061270a565b801561143e5780601f106114135761010080835404028352916020019161143e565b820191906000526020600020905b81548152906001019060200180831161142157829003601f168201915b50505050508383815181106114555761145561273e565b602002602001018190525050808061146c9061276a565b9150506112f9565b600060028383604051611488929190612783565b9081526040519081900360200190205460ff16905092915050565b60606000805480602002602001604051908101604052809291908181526020016000905b828210156115735783829060005260206000200180546114e69061270a565b80601f01602080910402602001604051908101604052809291908181526020018280546115129061270a565b801561155f5780601f106115345761010080835404028352916020019161155f565b820191906000526020600020905b81548152906001019060200180831161154257829003601f168201915b5050505050815260200190600101906114c7565b50505050905090565b60006041821461159f57604051634be6321b60e01b815260040160405180910390fd5b82356020840135604085013560001a601b8110156115c5576115c2601b82612937565b90505b604080516000808252602082018084528a905260ff841692820192909252606081018590526080810184905260019060a0016020604051602081039080840390855afa158015611619573d6000803e3d6000fd5b5050604051601f1901519150506001600160a01b03811661164d57604051638baa579f60e01b815260040160405180910390fd5b979650505050505050565b60607f00000000000000000000000000000000000000000000000000000000000000004210156116a9575060408051808201909152600c81526b2932b3b4b9ba3930ba34b7b760a11b602082015290565b7f00000000000000000000000000000000000000000000000000000000000000004210156116f6575060408051808201909152600a81526929bab136b4b9b9b4b7b760b11b602082015290565b7f000000000000000000000000000000000000000000000000000000000000000042101561173f5750604080518082019091526006815265566f74696e6760d01b602082015290565b50604080518082019091526007815266526573756c747360c81b602082015290565b606060028383604051611775929190612783565b9081526040519081900360200190205460ff166117a557604051630173b71360e31b815260040160405180910390fd5b600483836040516117b7929190612783565b908152602001604051809103902080546117d09061270a565b80601f01602080910402602001604051908101604052809291908181526020018280546117fc9061270a565b80156118495780601f1061181e57610100808354040283529160200191611849565b820191906000526020600020905b81548152906001019060200180831161182c57829003601f168201915b5050505050905092915050565b604051806080016040528060448152602001612a4b6044913981565b60055460609081908190806001600160401b03811115611894576118946126f4565b6040519080825280602002602001820160405280156118c757816020015b60608152602001906001900390816118b25790505b509350806001600160401b038111156118e2576118e26126f4565b60405190808252806020026020018201604052801561190b578160200160208202803683370190505b509250806001600160401b03811115611926576119266126f4565b60405190808252806020026020018201604052801561194f578160200160208202803683370190505b50915060005b81811015611abe57600581815481106119705761197061273e565b9060005260206000209060050201600101805461198c9061270a565b80601f01602080910402602001604051908101604052809291908181526020018280546119b89061270a565b8015611a055780601f106119da57610100808354040283529160200191611a05565b820191906000526020600020905b8154815290600101906020018083116119e857829003601f168201915b5050505050858281518110611a1c57611a1c61273e565b602002602001018190525060058181548110611a3a57611a3a61273e565b906000526020600020906005020160020154848281518110611a5e57611a5e61273e565b60200260200101818152505060058181548110611a7d57611a7d61273e565b906000526020600020906005020160030154838281518110611aa157611aa161273e565b602090810291909101015280611ab68161276a565b915050611955565b5050909192565b7f0000000000000000000000000000000000000000000000000000000000000000421015611b355760405162461bcd60e51b815260206004820152601b60248201527f566f74696e6720706572696f64206e6f7420656e6465642079657400000000006044820152606401610948565b6040517f7a19ed057db79e3c2fa0b97a54b43bef4fce74b31bb6c01af514b9a18a7f70ab90600090a16040517fa5d8def0776a3f5daa22acf078d5d04c7b0327feeddecdf16c5feaa067cff81990600090a1565b7f00000000000000000000000000000000000000000000000000000000000000004210611bc9576040516303da5a4360e61b815260040160405180910390fd5b6702c68af0bb1400007f00000000000000000000000000000000000000000000000000000000000000006001600160a01b0316311015611c555760405162fae2d560e21b81526702c68af0bb14000060048201526001600160a01b037f000000000000000000000000000000000000000000000000000000000000000016316024820152604401610948565b611c5f86866120f9565b611c7c5760405163556fc8e360e11b815260040160405180910390fd5b60028686604051611c8e929190612783565b9081526040519081900360200190205460ff1615611cbf5760405163341f54fd60e01b815260040160405180910390fd5b611ccd868686868686611e6a565b611cea57604051638baa579f60e01b815260040160405180910390fd5b60008686604051602001611cff929190612783565b60405160208183030381529060405280519060200120905060008585604051602001611d2c929190612783565b60405160208183030381529060405280519060200120905060008484604051611d56929190612783565b6040518091039020905060405180608001604052806001151581526020018381526020018481526020018281525060028a8a604051611d96929190612783565b90815260408051602092819003830181208451815460ff191690151517815592840151600184015590830151600283015560609092015160039091015587908790600490611de7908d908d90612783565b90815260200160405180910390209182611e02929190612950565b506007546000908152600360205260409020611e1f898b83612950565b5060078054906000611e308361276a565b91905055507f293de1322dd4c6af4a4629391e61363ba4064b3a1f9a24f7a2bf6c698db458e689898989604051610cf49493929190612a10565b60008087878787604051602001611e8494939291906128f9565b604051602081830303815290604052805190602001209050600081604051602001611edb91907f19457468657265756d205369676e6564204d6573736167653a0a3332000000008152601c810191909152603c0190565b6040516020818303038152906040528051906020012090506000611f0082878761157c565b6001600160a01b031673ce8190e1ebe1bce6c6685ae4b2f9eee1faa906e01493505050509695505050505050565b60058181548110611f3e57600080fd5b60009182526020909120600590910201805460018201805460ff909216935090611f679061270a565b80601f0160208091040260200160405190810160405280929190818152602001828054611f939061270a565b8015611fe05780601f10611fb557610100808354040283529160200191611fe0565b820191906000526020600020905b815481529060010190602001808311611fc357829003601f168201915b5050505060028301546003840154600490940154929390929091506001600160a01b031685565b60606008805480602002602001604051908101604052809291908181526020016000905b82821015611573578382906000526020600020906002020160405180604001604052908160008201805461205e9061270a565b80601f016020809104026020016040519081016040528092919081815260200182805461208a9061270a565b80156120d75780601f106120ac576101008083540402835291602001916120d7565b820191906000526020600020905b8154815290600101906020018083116120ba57829003601f168201915b505050505081526020016001820154815250508152602001906001019061202b565b60008282825b60005481101561227d57600080828154811061211d5761211d61273e565b9060005260206000200180546121329061270a565b80601f016020809104026020016040519081016040528092919081815260200182805461215e9061270a565b80156121ab5780601f10612180576101008083540402835291602001916121ab565b820191906000526020600020905b81548152906001019060200180831161218e57829003601f168201915b505083519394505050508310156121c2575061226b565b600160005b8251811015612253578281815181106121e2576121e261273e565b016020015183516001600160f81b03199091169087908790849061220690836128a1565b6122109190612a37565b81811061221f5761221f61273e565b9050013560f81c60f81b6001600160f81b031916146122415760009150612253565b8061224b8161276a565b9150506121c7565b50801561226857600195505050505050610d49565b50505b806122758161276a565b9150506120ff565b50600095945050505050565b60005b838110156122a457818101518382015260200161228c565b50506000910152565b600081518084526122c5816020860160208601612289565b601f01601f19169290920160200192915050565b600082825180855260208086019550808260051b84010181860160005b8481101561232457601f198684030189526123128383516122ad565b988401989250908301906001016122f6565b5090979650505050505050565b60208152600061234460208301846122d9565b9392505050565b60208152600061234460208301846122ad565b60008083601f84011261237057600080fd5b5081356001600160401b0381111561238757600080fd5b60208301915083602082850101111561239f57600080fd5b9250929050565b60008060008060008060006080888a0312156123c157600080fd5b87356001600160401b03808211156123d857600080fd5b6123e48b838c0161235e565b909950975060208a01359150808211156123fd57600080fd5b6124098b838c0161235e565b909750955060408a013591508082111561242257600080fd5b5061242f8a828b0161235e565b90945092505060608801356001600160a01b038116811461244f57600080fd5b8091505092959891949750929550565b6000806020838503121561247257600080fd5b82356001600160401b0381111561248857600080fd5b6124948582860161235e565b90969095509350505050565b6000602082840312156124b257600080fd5b5035919050565b6040815260006124cc60408301856122ad565b90508260208301529392505050565b600080600080600080606087890312156124f457600080fd5b86356001600160401b038082111561250b57600080fd5b6125178a838b0161235e565b9098509650602089013591508082111561253057600080fd5b61253c8a838b0161235e565b9096509450604089013591508082111561255557600080fd5b5061256289828a0161235e565b979a9699509497509295939492505050565b60008060006040848603121561258957600080fd5b8335925060208401356001600160401b038111156125a657600080fd5b6125b28682870161235e565b9497909650939450505050565b600081518084526020808501945080840160005b838110156125ef578151875295820195908201906001016125d3565b509495945050505050565b60608152600061260d60608301866122d9565b828103602084015261261f81866125bf565b9050828103604084015261263381856125bf565b9695505050505050565b851515815260a06020820152600061265860a08301876122ad565b60408301959095525060608101929092526001600160a01b031660809091015292915050565b60006020808301818452808551808352604092508286019150828160051b87010184880160005b838110156126e657888303603f19018552815180518785526126c9888601826122ad565b9189015194890194909452948701949250908601906001016126a5565b509098975050505050505050565b634e487b7160e01b600052604160045260246000fd5b600181811c9082168061271e57607f821691505b60208210810361065157634e487b7160e01b600052602260045260246000fd5b634e487b7160e01b600052603260045260246000fd5b634e487b7160e01b600052601160045260246000fd5b60006001820161277c5761277c612754565b5060010190565b8183823760009101908152919050565b601f8211156127dd57600081815260208120601f850160051c810160208610156127ba5750805b601f850160051c820191505b818110156127d9578281556001016127c6565b5050505b505050565b81516001600160401b038111156127fb576127fb6126f4565b61280f81612809845461270a565b84612793565b602080601f831160018114612844576000841561282c5750858301515b600019600386901b1c1916600185901b1785556127d9565b600085815260208120601f198616915b8281101561287357888601518255948401946001909101908401612854565b50858210156128915787850151600019600388901b60f8161c191681555b5050505050600190811b01905550565b81810381811115610d4957610d49612754565b81835281816020850137506000828201602090810191909152601f909101601f19169091010190565b6020815260006128f16020830184866128b4565b949350505050565b8385823760008482016000815283858237600093019283525090949350505050565b6000825161292d818460208701612289565b9190910192915050565b60ff8181168382160190811115610d4957610d49612754565b6001600160401b03831115612967576129676126f4565b61297b83612975835461270a565b83612793565b6000601f8411600181146129af57600085156129975750838201355b600019600387901b1c1916600186901b178355612a09565b600083815260209020601f19861690835b828110156129e057868501358255602094850194600190920191016129c0565b50868210156129fd5760001960f88860031b161c19848701351681555b505060018560011b0183555b5050505050565b604081526000612a246040830186886128b4565b828103602084015261164d8185876128b4565b80820180821115610d4957610d4961275456fe3078303265333862643165623634663932643631326330303939636431343839356362616561343736656666373131646534396662313564336131336631316263636535a26469706673582212206454c2e38430ca71013c1256631cf35f442ca7d06dd3ece0a1a46c13aa306fb064736f6c63430008130033","opcodes":"PUSH2 0x120 PUSH1 0x40 MSTORE CALLVALUE DUP1 ISZERO PUSH3 0x12 JUMPI PUSH1 0x0 DUP1 REVERT JUMPDEST POP PUSH1 0x40 MLOAD PUSH3 0x31A5 CODESIZE SUB DUP1 PUSH3 0x31A5 DUP4 CODECOPY DUP2 ADD PUSH1 0x40 DUP2 SWAP1 MSTORE PUSH3 0x35 SWAP2 PUSH3 0x3AA JUMP JUMPDEST CALLER PUSH2 0x100 MSTORE TIMESTAMP PUSH1 0x80 DUP2 SWAP1 MSTORE PUSH3 0x4D SWAP1 DUP7 SWAP1 PUSH3 0x449 JUMP JUMPDEST PUSH1 0xA0 DUP2 SWAP1 MSTORE PUSH3 0x5F SWAP1 DUP6 SWAP1 PUSH3 0x449 JUMP JUMPDEST PUSH1 0xC0 DUP2 SWAP1 MSTORE PUSH3 0x71 SWAP1 DUP5 SWAP1 PUSH3 0x449 JUMP JUMPDEST PUSH1 0xE0 MSTORE PUSH1 0x0 JUMPDEST DUP3 MLOAD DUP2 LT ISZERO PUSH3 0x13E JUMPI PUSH1 0x8 PUSH1 0x40 MLOAD DUP1 PUSH1 0x40 ADD PUSH1 0x40 MSTORE DUP1 DUP6 DUP5 DUP2 MLOAD DUP2 LT PUSH3 0xA3 JUMPI PUSH3 0xA3 PUSH3 0x465 JUMP JUMPDEST PUSH1 0x20 SWAP1 DUP2 MUL SWAP2 SWAP1 SWAP2 ADD DUP2 ADD MLOAD DUP3 MSTORE PUSH1 0x0 SWAP2 DUP2 ADD DUP3 SWAP1 MSTORE DUP4 SLOAD PUSH1 0x1 DUP2 ADD DUP6 SSTORE SWAP4 DUP3 MSTORE SWAP1 KECCAK256 DUP2 MLOAD SWAP2 SWAP3 PUSH1 0x2 MUL ADD SWAP1 DUP2 SWAP1 PUSH3 0xDD SWAP1 DUP3 PUSH3 0x50A JUMP JUMPDEST POP PUSH1 0x20 DUP3 ADD MLOAD DUP2 PUSH1 0x1 ADD SSTORE POP POP DUP1 PUSH1 0x9 DUP5 DUP4 DUP2 MLOAD DUP2 LT PUSH3 0x102 JUMPI PUSH3 0x102 PUSH3 0x465 JUMP JUMPDEST PUSH1 0x20 MUL PUSH1 0x20 ADD ADD MLOAD PUSH1 0x40 MLOAD PUSH3 0x119 SWAP2 SWAP1 PUSH3 0x5D6 JUMP JUMPDEST SWAP1 DUP2 MSTORE PUSH1 0x40 MLOAD SWAP1 DUP2 SWAP1 SUB PUSH1 0x20 ADD SWAP1 KECCAK256 SSTORE DUP1 PUSH3 0x135 DUP2 PUSH3 0x5F4 JUMP JUMPDEST SWAP2 POP POP PUSH3 0x77 JUMP JUMPDEST POP DUP1 MLOAD PUSH3 0x154 SWAP1 PUSH1 0x0 SWAP1 PUSH1 0x20 DUP5 ADD SWAP1 PUSH3 0x160 JUMP JUMPDEST POP POP POP POP POP POP PUSH3 0x610 JUMP JUMPDEST DUP3 DUP1 SLOAD DUP3 DUP3 SSTORE SWAP1 PUSH1 0x0 MSTORE PUSH1 0x20 PUSH1 0x0 KECCAK256 SWAP1 DUP2 ADD SWAP3 DUP3 ISZERO PUSH3 0x1AB JUMPI SWAP2 PUSH1 0x20 MUL DUP3 ADD JUMPDEST DUP3 DUP2 GT ISZERO PUSH3 0x1AB JUMPI DUP3 MLOAD DUP3 SWAP1 PUSH3 0x19A SWAP1 DUP3 PUSH3 0x50A JUMP JUMPDEST POP SWAP2 PUSH1 0x20 ADD SWAP2 SWAP1 PUSH1 0x1 ADD SWAP1 PUSH3 0x181 JUMP JUMPDEST POP PUSH3 0x1B9 SWAP3 SWAP2 POP PUSH3 0x1BD JUMP JUMPDEST POP SWAP1 JUMP JUMPDEST DUP1 DUP3 GT ISZERO PUSH3 0x1B9 JUMPI PUSH1 0x0 PUSH3 0x1D4 DUP3 DUP3 PUSH3 0x1DE JUMP JUMPDEST POP PUSH1 0x1 ADD PUSH3 0x1BD JUMP JUMPDEST POP DUP1 SLOAD PUSH3 0x1EC SWAP1 PUSH3 0x47B JUMP JUMPDEST PUSH1 0x0 DUP3 SSTORE DUP1 PUSH1 0x1F LT PUSH3 0x1FD JUMPI POP POP JUMP JUMPDEST PUSH1 0x1F ADD PUSH1 0x20 SWAP1 DIV SWAP1 PUSH1 0x0 MSTORE PUSH1 0x20 PUSH1 0x0 KECCAK256 SWAP1 DUP2 ADD SWAP1 PUSH3 0x21D SWAP2 SWAP1 PUSH3 0x220 JUMP JUMPDEST POP JUMP JUMPDEST JUMPDEST DUP1 DUP3 GT ISZERO PUSH3 0x1B9 JUMPI PUSH1 0x0 DUP2 SSTORE PUSH1 0x1 ADD PUSH3 0x221 JUMP JUMPDEST PUSH4 0x4E487B71 PUSH1 0xE0 SHL PUSH1 0x0 MSTORE PUSH1 0x41 PUSH1 0x4 MSTORE PUSH1 0x24 PUSH1 0x0 REVERT JUMPDEST PUSH1 0x40 MLOAD PUSH1 0x1F DUP3 ADD PUSH1 0x1F NOT AND DUP2 ADD PUSH1 0x1 PUSH1 0x1 PUSH1 0x40 SHL SUB DUP2 GT DUP3 DUP3 LT OR ISZERO PUSH3 0x278 JUMPI PUSH3 0x278 PUSH3 0x237 JUMP JUMPDEST PUSH1 0x40 MSTORE SWAP2 SWAP1 POP JUMP JUMPDEST PUSH1 0x0 JUMPDEST DUP4 DUP2 LT ISZERO PUSH3 0x29D JUMPI DUP2 DUP2 ADD MLOAD DUP4 DUP3 ADD MSTORE PUSH1 0x20 ADD PUSH3 0x283 JUMP JUMPDEST POP POP PUSH1 0x0 SWAP2 ADD MSTORE JUMP JUMPDEST PUSH1 0x0 PUSH1 0x1F DUP4 DUP2 DUP5 ADD SLT PUSH3 0x2B9 JUMPI PUSH1 0x0 DUP1 REVERT JUMPDEST DUP3 MLOAD PUSH1 0x20 PUSH1 0x1 PUSH1 0x1 PUSH1 0x40 SHL SUB DUP1 DUP4 GT ISZERO PUSH3 0x2D8 JUMPI PUSH3 0x2D8 PUSH3 0x237 JUMP JUMPDEST DUP3 PUSH1 0x5 SHL PUSH3 0x2E9 DUP4 DUP3 ADD PUSH3 0x24D JUMP JUMPDEST SWAP4 DUP5 MSTORE DUP7 DUP2 ADD DUP4 ADD SWAP4 DUP4 DUP2 ADD SWAP1 DUP10 DUP7 GT ISZERO PUSH3 0x304 JUMPI PUSH1 0x0 DUP1 REVERT JUMPDEST DUP5 DUP10 ADD SWAP3 POP JUMPDEST DUP6 DUP4 LT ISZERO PUSH3 0x39D JUMPI DUP3 MLOAD DUP5 DUP2 GT ISZERO PUSH3 0x324 JUMPI PUSH1 0x0 DUP1 DUP2 REVERT JUMPDEST DUP10 ADD PUSH1 0x3F DUP2 ADD DUP12 SGT PUSH3 0x337 JUMPI PUSH1 0x0 DUP1 DUP2 REVERT JUMPDEST DUP6 DUP2 ADD MLOAD PUSH1 0x40 DUP7 DUP3 GT ISZERO PUSH3 0x350 JUMPI PUSH3 0x350 PUSH3 0x237 JUMP JUMPDEST PUSH3 0x363 DUP3 DUP12 ADD PUSH1 0x1F NOT AND DUP10 ADD PUSH3 0x24D JUMP JUMPDEST DUP3 DUP2 MSTORE DUP14 DUP3 DUP5 DUP7 ADD ADD GT ISZERO PUSH3 0x379 JUMPI PUSH1 0x0 DUP1 DUP2 REVERT JUMPDEST PUSH3 0x38A DUP4 DUP11 DUP4 ADD DUP5 DUP8 ADD PUSH3 0x280 JUMP JUMPDEST DUP6 MSTORE POP POP POP SWAP2 DUP5 ADD SWAP2 SWAP1 DUP5 ADD SWAP1 PUSH3 0x30A JUMP JUMPDEST SWAP10 SWAP9 POP POP POP POP POP POP POP POP POP JUMP JUMPDEST PUSH1 0x0 DUP1 PUSH1 0x0 DUP1 PUSH1 0x0 PUSH1 0xA0 DUP7 DUP9 SUB SLT ISZERO PUSH3 0x3C3 JUMPI PUSH1 0x0 DUP1 REVERT JUMPDEST DUP6 MLOAD PUSH1 0x20 DUP8 ADD MLOAD PUSH1 0x40 DUP9 ADD MLOAD PUSH1 0x60 DUP10 ADD MLOAD SWAP3 SWAP8 POP SWAP1 SWAP6 POP SWAP4 POP PUSH1 0x1 PUSH1 0x1 PUSH1 0x40 SHL SUB DUP1 DUP3 GT ISZERO PUSH3 0x3F2 JUMPI PUSH1 0x0 DUP1 REVERT JUMPDEST PUSH3 0x400 DUP10 DUP4 DUP11 ADD PUSH3 0x2A6 JUMP JUMPDEST SWAP4 POP PUSH1 0x80 DUP9 ADD MLOAD SWAP2 POP DUP1 DUP3 GT ISZERO PUSH3 0x417 JUMPI PUSH1 0x0 DUP1 REVERT JUMPDEST POP PUSH3 0x426 DUP9 DUP3 DUP10 ADD PUSH3 0x2A6 JUMP JUMPDEST SWAP2 POP POP SWAP3 SWAP6 POP SWAP3 SWAP6 SWAP1 SWAP4 POP JUMP JUMPDEST PUSH4 0x4E487B71 PUSH1 0xE0 SHL PUSH1 0x0 MSTORE PUSH1 0x11 PUSH1 0x4 MSTORE PUSH1 0x24 PUSH1 0x0 REVERT JUMPDEST DUP1 DUP3 ADD DUP1 DUP3 GT ISZERO PUSH3 0x45F JUMPI PUSH3 0x45F PUSH3 0x433 JUMP JUMPDEST SWAP3 SWAP2 POP POP JUMP JUMPDEST PUSH4 0x4E487B71 PUSH1 0xE0 SHL PUSH1 0x0 MSTORE PUSH1 0x32 PUSH1 0x4 MSTORE PUSH1 0x24 PUSH1 0x0 REVERT JUMPDEST PUSH1 0x1 DUP2 DUP2 SHR SWAP1 DUP3 AND DUP1 PUSH3 0x490 JUMPI PUSH1 0x7F DUP3 AND SWAP2 POP JUMPDEST PUSH1 0x20 DUP3 LT DUP2 SUB PUSH3 0x4B1 JUMPI PUSH4 0x4E487B71 PUSH1 0xE0 SHL PUSH1 0x0 MSTORE PUSH1 0x22 PUSH1 0x4 MSTORE PUSH1 0x24 PUSH1 0x0 REVERT JUMPDEST POP SWAP2 SWAP1 POP JUMP JUMPDEST PUSH1 0x1F DUP3 GT ISZERO PUSH3 0x505 JUMPI PUSH1 0x0 DUP2 DUP2 MSTORE PUSH1 0x20 DUP2 KECCAK256 PUSH1 0x1F DUP6 ADD PUSH1 0x5 SHR DUP2 ADD PUSH1 0x20 DUP7 LT ISZERO PUSH3 0x4E0 JUMPI POP DUP1 JUMPDEST PUSH1 0x1F DUP6 ADD PUSH1 0x5 SHR DUP3 ADD SWAP2 POP JUMPDEST DUP2 DUP2 LT ISZERO PUSH3 0x501 JUMPI DUP3 DUP2 SSTORE PUSH1 0x1 ADD PUSH3 0x4EC JUMP JUMPDEST POP POP POP JUMPDEST POP POP POP JUMP JUMPDEST DUP2 MLOAD PUSH1 0x1 PUSH1 0x1 PUSH1 0x40 SHL SUB DUP2 GT ISZERO PUSH3 0x526 JUMPI PUSH3 0x526 PUSH3 0x237 JUMP JUMPDEST PUSH3 0x53E DUP2 PUSH3 0x537 DUP5 SLOAD PUSH3 0x47B JUMP JUMPDEST DUP5 PUSH3 0x4B7 JUMP JUMPDEST PUSH1 0x20 DUP1 PUSH1 0x1F DUP4 GT PUSH1 0x1 DUP2 EQ PUSH3 0x576 JUMPI PUSH1 0x0 DUP5 ISZERO PUSH3 0x55D JUMPI POP DUP6 DUP4 ADD MLOAD JUMPDEST PUSH1 0x0 NOT PUSH1 0x3 DUP7 SWAP1 SHL SHR NOT AND PUSH1 0x1 DUP6 SWAP1 SHL OR DUP6 SSTORE PUSH3 0x501 JUMP JUMPDEST PUSH1 0x0 DUP6 DUP2 MSTORE PUSH1 0x20 DUP2 KECCAK256 PUSH1 0x1F NOT DUP7 AND SWAP2 JUMPDEST DUP3 DUP2 LT ISZERO PUSH3 0x5A7 JUMPI DUP9 DUP7 ADD MLOAD DUP3 SSTORE SWAP5 DUP5 ADD SWAP5 PUSH1 0x1 SWAP1 SWAP2 ADD SWAP1 DUP5 ADD PUSH3 0x586 JUMP JUMPDEST POP DUP6 DUP3 LT ISZERO PUSH3 0x5C6 JUMPI DUP8 DUP6 ADD MLOAD PUSH1 0x0 NOT PUSH1 0x3 DUP9 SWAP1 SHL PUSH1 0xF8 AND SHR NOT AND DUP2 SSTORE JUMPDEST POP POP POP POP POP PUSH1 0x1 SWAP1 DUP2 SHL ADD SWAP1 SSTORE POP JUMP JUMPDEST PUSH1 0x0 DUP3 MLOAD PUSH3 0x5EA DUP2 DUP5 PUSH1 0x20 DUP8 ADD PUSH3 0x280 JUMP JUMPDEST SWAP2 SWAP1 SWAP2 ADD SWAP3 SWAP2 POP POP JUMP JUMPDEST PUSH1 0x0 PUSH1 0x1 DUP3 ADD PUSH3 0x609 JUMPI PUSH3 0x609 PUSH3 0x433 JUMP JUMPDEST POP PUSH1 0x1 ADD SWAP1 JUMP JUMPDEST PUSH1 0x80 MLOAD PUSH1 0xA0 MLOAD PUSH1 0xC0 MLOAD PUSH1 0xE0 MLOAD PUSH2 0x100 MLOAD PUSH2 0x2AC4 PUSH3 0x6E1 PUSH1 0x0 CODECOPY PUSH1 0x0 DUP2 DUP2 PUSH2 0x45E ADD MSTORE DUP2 DUP2 PUSH2 0x491 ADD MSTORE DUP2 DUP2 PUSH2 0xA82 ADD MSTORE DUP2 DUP2 PUSH2 0xAD5 ADD MSTORE DUP2 DUP2 PUSH2 0xE82 ADD MSTORE DUP2 DUP2 PUSH2 0xED5 ADD MSTORE DUP2 DUP2 PUSH2 0x1BD4 ADD MSTORE PUSH2 0x1C27 ADD MSTORE PUSH1 0x0 DUP2 DUP2 PUSH2 0x251 ADD MSTORE DUP2 DUP2 PUSH2 0x953 ADD MSTORE DUP2 DUP2 PUSH2 0xE36 ADD MSTORE DUP2 DUP2 PUSH2 0x16F8 ADD MSTORE PUSH2 0x1AC7 ADD MSTORE PUSH1 0x0 DUP2 DUP2 PUSH2 0x300 ADD MSTORE DUP2 DUP2 PUSH2 0x8DE ADD MSTORE DUP2 DUP2 PUSH2 0xA36 ADD MSTORE DUP2 DUP2 PUSH2 0xE0D ADD MSTORE DUP2 DUP2 PUSH2 0x1200 ADD MSTORE PUSH2 0x16AB ADD MSTORE PUSH1 0x0 DUP2 DUP2 PUSH2 0x427 ADD MSTORE DUP2 DUP2 PUSH2 0xA0D ADD MSTORE DUP2 DUP2 PUSH2 0x1186 ADD MSTORE DUP2 DUP2 PUSH2 0x165C ADD MSTORE PUSH2 0x1B8B ADD MSTORE PUSH1 0x0 PUSH2 0x3BE ADD MSTORE PUSH2 0x2AC4 PUSH1 0x0 RETURN INVALID PUSH1 0x80 PUSH1 0x40 MSTORE CALLVALUE DUP1 ISZERO PUSH2 0x10 JUMPI PUSH1 0x0 DUP1 REVERT JUMPDEST POP PUSH1 0x4 CALLDATASIZE LT PUSH2 0x1FA JUMPI PUSH1 0x0 CALLDATALOAD PUSH1 0xE0 SHR DUP1 PUSH4 0x7282F837 GT PUSH2 0x11A JUMPI DUP1 PUSH4 0xC3403DDF GT PUSH2 0xAD JUMPI DUP1 PUSH4 0xF851A440 GT PUSH2 0x7C JUMPI DUP1 PUSH4 0xF851A440 EQ PUSH2 0x48C JUMPI DUP1 PUSH4 0xFD9D994C EQ PUSH2 0x4B3 JUMPI DUP1 PUSH4 0xFE7565E4 EQ PUSH2 0x4DD JUMPI DUP1 PUSH4 0xFF5C4A32 EQ PUSH2 0x4F0 JUMPI DUP1 PUSH4 0xFFC97B20 EQ PUSH2 0x514 JUMPI PUSH1 0x0 DUP1 REVERT JUMPDEST DUP1 PUSH4 0xC3403DDF EQ PUSH2 0x41A JUMPI DUP1 PUSH4 0xDFF7D2C7 EQ PUSH2 0x422 JUMPI DUP1 PUSH4 0xF098BE02 EQ PUSH2 0x449 JUMPI DUP1 PUSH4 0xF40FFCFB EQ PUSH2 0x45C JUMPI PUSH1 0x0 DUP1 REVERT JUMPDEST DUP1 PUSH4 0xA3A40EA5 GT PUSH2 0xE9 JUMPI DUP1 PUSH4 0xA3A40EA5 EQ PUSH2 0x3E0 JUMPI DUP1 PUSH4 0xA69C02D9 EQ PUSH2 0x3E8 JUMPI DUP1 PUSH4 0xB117AC2A EQ PUSH2 0x3FB JUMPI DUP1 PUSH4 0xBA9BD57E EQ PUSH2 0x403 JUMPI PUSH1 0x0 DUP1 REVERT JUMPDEST DUP1 PUSH4 0x7282F837 EQ PUSH2 0x34C JUMPI DUP1 PUSH4 0x74D3734A EQ PUSH2 0x37F JUMPI DUP1 PUSH4 0x97ABA7F9 EQ PUSH2 0x3A6 JUMPI DUP1 PUSH4 0x9AF5C09D EQ PUSH2 0x3B9 JUMPI PUSH1 0x0 DUP1 REVERT JUMPDEST DUP1 PUSH4 0x3477EE2E GT PUSH2 0x192 JUMPI DUP1 PUSH4 0x532EACA0 GT PUSH2 0x161 JUMPI DUP1 PUSH4 0x532EACA0 EQ PUSH2 0x2FB JUMPI DUP1 PUSH4 0x53498CDD EQ PUSH2 0x322 JUMPI DUP1 PUSH4 0x627286BA EQ PUSH2 0x331 JUMPI DUP1 PUSH4 0x6847D741 EQ PUSH2 0x344 JUMPI PUSH1 0x0 DUP1 REVERT JUMPDEST DUP1 PUSH4 0x3477EE2E EQ PUSH2 0x2B7 JUMPI DUP1 PUSH4 0x392C4F34 EQ PUSH2 0x2D8 JUMPI DUP1 PUSH4 0x4A8A62AB EQ PUSH2 0x2EB JUMPI DUP1 PUSH4 0x4F39ED7E EQ PUSH2 0x2F3 JUMPI PUSH1 0x0 DUP1 REVERT JUMPDEST DUP1 PUSH4 0xF627C3C GT PUSH2 0x1CE JUMPI DUP1 PUSH4 0xF627C3C EQ PUSH2 0x237 JUMPI DUP1 PUSH4 0x1EA736E0 EQ PUSH2 0x24C JUMPI DUP1 PUSH4 0x31345497 EQ PUSH2 0x281 JUMPI DUP1 PUSH4 0x320D48C2 EQ PUSH2 0x294 JUMPI PUSH1 0x0 DUP1 REVERT JUMPDEST DUP1 PUSH3 0x7874CB EQ PUSH2 0x1FF JUMPI DUP1 PUSH4 0x6A49FCE EQ PUSH2 0x21D JUMPI DUP1 PUSH4 0x96C89B3 EQ PUSH2 0x225 JUMPI DUP1 PUSH4 0xB810EDC EQ PUSH2 0x22D JUMPI JUMPDEST PUSH1 0x0 DUP1 REVERT JUMPDEST PUSH2 0x207 PUSH2 0x529 JUMP JUMPDEST PUSH1 0x40 MLOAD PUSH2 0x214 SWAP2 SWAP1 PUSH2 0x2331 JUMP JUMPDEST PUSH1 0x40 MLOAD DUP1 SWAP2 SUB SWAP1 RETURN JUMPDEST PUSH2 0x207 PUSH2 0x657 JUMP JUMPDEST PUSH2 0x207 PUSH2 0x797 JUMP JUMPDEST PUSH2 0x235 PUSH2 0x8DC JUMP JUMPDEST STOP JUMPDEST PUSH2 0x23F PUSH2 0x9EB JUMP JUMPDEST PUSH1 0x40 MLOAD PUSH2 0x214 SWAP2 SWAP1 PUSH2 0x234B JUMP JUMPDEST PUSH2 0x273 PUSH32 0x0 DUP2 JUMP JUMPDEST PUSH1 0x40 MLOAD SWAP1 DUP2 MSTORE PUSH1 0x20 ADD PUSH2 0x214 JUMP JUMPDEST PUSH2 0x235 PUSH2 0x28F CALLDATASIZE PUSH1 0x4 PUSH2 0x23A6 JUMP JUMPDEST PUSH2 0xA0B JUMP JUMPDEST PUSH2 0x2A7 PUSH2 0x2A2 CALLDATASIZE PUSH1 0x4 PUSH2 0x245F JUMP JUMPDEST PUSH2 0xD07 JUMP JUMPDEST PUSH1 0x40 MLOAD SWAP1 ISZERO ISZERO DUP2 MSTORE PUSH1 0x20 ADD PUSH2 0x214 JUMP JUMPDEST PUSH2 0x2CA PUSH2 0x2C5 CALLDATASIZE PUSH1 0x4 PUSH2 0x24A0 JUMP JUMPDEST PUSH2 0xD4F JUMP JUMPDEST PUSH1 0x40 MLOAD PUSH2 0x214 SWAP3 SWAP2 SWAP1 PUSH2 0x24B9 JUMP JUMPDEST PUSH2 0x235 PUSH2 0x2E6 CALLDATASIZE PUSH1 0x4 PUSH2 0x24DB JUMP JUMPDEST PUSH2 0xE0B JUMP JUMPDEST PUSH2 0x235 PUSH2 0x1184 JUMP JUMPDEST PUSH2 0x207 PUSH2 0x12A2 JUMP JUMPDEST PUSH2 0x273 PUSH32 0x0 DUP2 JUMP JUMPDEST PUSH2 0x273 PUSH8 0x2C68AF0BB140000 DUP2 JUMP JUMPDEST PUSH2 0x2A7 PUSH2 0x33F CALLDATASIZE PUSH1 0x4 PUSH2 0x245F JUMP JUMPDEST PUSH2 0x1474 JUMP JUMPDEST PUSH2 0x207 PUSH2 0x14A3 JUMP JUMPDEST PUSH2 0x367 PUSH20 0xCE8190E1EBE1BCE6C6685AE4B2F9EEE1FAA906E0 DUP2 JUMP JUMPDEST PUSH1 0x40 MLOAD PUSH1 0x1 PUSH1 0x1 PUSH1 0xA0 SHL SUB SWAP1 SWAP2 AND DUP2 MSTORE PUSH1 0x20 ADD PUSH2 0x214 JUMP JUMPDEST PUSH1 0x40 DUP1 MLOAD DUP1 DUP3 ADD SWAP1 SWAP2 MSTORE PUSH1 0xB DUP2 MSTORE PUSH11 0x65766F74696E6732303235 PUSH1 0xA8 SHL PUSH1 0x20 DUP3 ADD MSTORE PUSH2 0x23F JUMP JUMPDEST PUSH2 0x367 PUSH2 0x3B4 CALLDATASIZE PUSH1 0x4 PUSH2 0x2574 JUMP JUMPDEST PUSH2 0x157C JUMP JUMPDEST PUSH2 0x273 PUSH32 0x0 DUP2 JUMP JUMPDEST PUSH2 0x23F PUSH2 0x1658 JUMP JUMPDEST PUSH2 0x23F PUSH2 0x3F6 CALLDATASIZE PUSH1 0x4 PUSH2 0x245F JUMP JUMPDEST PUSH2 0x1761 JUMP JUMPDEST PUSH2 0x23F PUSH2 0x1856 JUMP JUMPDEST PUSH2 0x40B PUSH2 0x1872 JUMP JUMPDEST PUSH1 0x40 MLOAD PUSH2 0x214 SWAP4 SWAP3 SWAP2 SWAP1 PUSH2 0x25FA JUMP JUMPDEST PUSH2 0x235 PUSH2 0x1AC5 JUMP JUMPDEST PUSH2 0x273 PUSH32 0x0 DUP2 JUMP JUMPDEST PUSH2 0x235 PUSH2 0x457 CALLDATASIZE PUSH1 0x4 PUSH2 0x24DB JUMP JUMPDEST PUSH2 0x1B89 JUMP JUMPDEST PUSH32 0x0 PUSH1 0x1 PUSH1 0x1 PUSH1 0xA0 SHL SUB AND BALANCE PUSH2 0x273 JUMP JUMPDEST PUSH2 0x367 PUSH32 0x0 DUP2 JUMP JUMPDEST PUSH2 0x23F PUSH1 0x40 MLOAD DUP1 PUSH1 0x40 ADD PUSH1 0x40 MSTORE DUP1 PUSH1 0xB DUP2 MSTORE PUSH1 0x20 ADD PUSH11 0x65766F74696E6732303235 PUSH1 0xA8 SHL DUP2 MSTORE POP DUP2 JUMP JUMPDEST PUSH2 0x2A7 PUSH2 0x4EB CALLDATASIZE PUSH1 0x4 PUSH2 0x24DB JUMP JUMPDEST PUSH2 0x1E6A JUMP JUMPDEST PUSH2 0x503 PUSH2 0x4FE CALLDATASIZE PUSH1 0x4 PUSH2 0x24A0 JUMP JUMPDEST PUSH2 0x1F2E JUMP JUMPDEST PUSH1 0x40 MLOAD PUSH2 0x214 SWAP6 SWAP5 SWAP4 SWAP3 SWAP2 SWAP1 PUSH2 0x263D JUMP JUMPDEST PUSH2 0x51C PUSH2 0x2007 JUMP JUMPDEST PUSH1 0x40 MLOAD PUSH2 0x214 SWAP2 SWAP1 PUSH2 0x267E JUMP JUMPDEST PUSH1 0x60 PUSH1 0x0 PUSH1 0x7 SLOAD PUSH1 0x1 PUSH1 0x1 PUSH1 0x40 SHL SUB DUP2 GT ISZERO PUSH2 0x547 JUMPI PUSH2 0x547 PUSH2 0x26F4 JUMP JUMPDEST PUSH1 0x40 MLOAD SWAP1 DUP1 DUP3 MSTORE DUP1 PUSH1 0x20 MUL PUSH1 0x20 ADD DUP3 ADD PUSH1 0x40 MSTORE DUP1 ISZERO PUSH2 0x57A JUMPI DUP2 PUSH1 0x20 ADD JUMPDEST PUSH1 0x60 DUP2 MSTORE PUSH1 0x20 ADD SWAP1 PUSH1 0x1 SWAP1 SUB SWAP1 DUP2 PUSH2 0x565 JUMPI SWAP1 POP JUMPDEST POP SWAP1 POP PUSH1 0x0 JUMPDEST PUSH1 0x7 SLOAD DUP2 LT ISZERO PUSH2 0x651 JUMPI PUSH1 0x0 DUP2 DUP2 MSTORE PUSH1 0x3 PUSH1 0x20 MSTORE PUSH1 0x40 SWAP1 KECCAK256 DUP1 SLOAD PUSH2 0x5A3 SWAP1 PUSH2 0x270A JUMP JUMPDEST DUP1 PUSH1 0x1F ADD PUSH1 0x20 DUP1 SWAP2 DIV MUL PUSH1 0x20 ADD PUSH1 0x40 MLOAD SWAP1 DUP2 ADD PUSH1 0x40 MSTORE DUP1 SWAP3 SWAP2 SWAP1 DUP2 DUP2 MSTORE PUSH1 0x20 ADD DUP3 DUP1 SLOAD PUSH2 0x5CF SWAP1 PUSH2 0x270A JUMP JUMPDEST DUP1 ISZERO PUSH2 0x61C JUMPI DUP1 PUSH1 0x1F LT PUSH2 0x5F1 JUMPI PUSH2 0x100 DUP1 DUP4 SLOAD DIV MUL DUP4 MSTORE SWAP2 PUSH1 0x20 ADD SWAP2 PUSH2 0x61C JUMP JUMPDEST DUP3 ADD SWAP2 SWAP1 PUSH1 0x0 MSTORE PUSH1 0x20 PUSH1 0x0 KECCAK256 SWAP1 JUMPDEST DUP2 SLOAD DUP2 MSTORE SWAP1 PUSH1 0x1 ADD SWAP1 PUSH1 0x20 ADD DUP1 DUP4 GT PUSH2 0x5FF JUMPI DUP3 SWAP1 SUB PUSH1 0x1F AND DUP3 ADD SWAP2 JUMPDEST POP POP POP POP POP DUP3 DUP3 DUP2 MLOAD DUP2 LT PUSH2 0x633 JUMPI PUSH2 0x633 PUSH2 0x273E JUMP JUMPDEST PUSH1 0x20 MUL PUSH1 0x20 ADD ADD DUP2 SWAP1 MSTORE POP DUP1 DUP1 PUSH2 0x649 SWAP1 PUSH2 0x276A JUMP JUMPDEST SWAP2 POP POP PUSH2 0x580 JUMP JUMPDEST POP SWAP2 SWAP1 POP JUMP JUMPDEST PUSH1 0x8 SLOAD PUSH1 0x60 SWAP1 PUSH1 0x0 SWAP1 PUSH1 0x1 PUSH1 0x1 PUSH1 0x40 SHL SUB DUP2 GT ISZERO PUSH2 0x677 JUMPI PUSH2 0x677 PUSH2 0x26F4 JUMP JUMPDEST PUSH1 0x40 MLOAD SWAP1 DUP1 DUP3 MSTORE DUP1 PUSH1 0x20 MUL PUSH1 0x20 ADD DUP3 ADD PUSH1 0x40 MSTORE DUP1 ISZERO PUSH2 0x6AA JUMPI DUP2 PUSH1 0x20 ADD JUMPDEST PUSH1 0x60 DUP2 MSTORE PUSH1 0x20 ADD SWAP1 PUSH1 0x1 SWAP1 SUB SWAP1 DUP2 PUSH2 0x695 JUMPI SWAP1 POP JUMPDEST POP SWAP1 POP PUSH1 0x0 JUMPDEST PUSH1 0x8 SLOAD DUP2 LT ISZERO PUSH2 0x651 JUMPI PUSH1 0x8 DUP2 DUP2 SLOAD DUP2 LT PUSH2 0x6CD JUMPI PUSH2 0x6CD PUSH2 0x273E JUMP JUMPDEST SWAP1 PUSH1 0x0 MSTORE PUSH1 0x20 PUSH1 0x0 KECCAK256 SWAP1 PUSH1 0x2 MUL ADD PUSH1 0x0 ADD DUP1 SLOAD PUSH2 0x6E9 SWAP1 PUSH2 0x270A JUMP JUMPDEST DUP1 PUSH1 0x1F ADD PUSH1 0x20 DUP1 SWAP2 DIV MUL PUSH1 0x20 ADD PUSH1 0x40 MLOAD SWAP1 DUP2 ADD PUSH1 0x40 MSTORE DUP1 SWAP3 SWAP2 SWAP1 DUP2 DUP2 MSTORE PUSH1 0x20 ADD DUP3 DUP1 SLOAD PUSH2 0x715 SWAP1 PUSH2 0x270A JUMP JUMPDEST DUP1 ISZERO PUSH2 0x762 JUMPI DUP1 PUSH1 0x1F LT PUSH2 0x737 JUMPI PUSH2 0x100 DUP1 DUP4 SLOAD DIV MUL DUP4 MSTORE SWAP2 PUSH1 0x20 ADD SWAP2 PUSH2 0x762 JUMP JUMPDEST DUP3 ADD SWAP2 SWAP1 PUSH1 0x0 MSTORE PUSH1 0x20 PUSH1 0x0 KECCAK256 SWAP1 JUMPDEST DUP2 SLOAD DUP2 MSTORE SWAP1 PUSH1 0x1 ADD SWAP1 PUSH1 0x20 ADD DUP1 DUP4 GT PUSH2 0x745 JUMPI DUP3 SWAP1 SUB PUSH1 0x1F AND DUP3 ADD SWAP2 JUMPDEST POP POP POP POP POP DUP3 DUP3 DUP2 MLOAD DUP2 LT PUSH2 0x779 JUMPI PUSH2 0x779 PUSH2 0x273E JUMP JUMPDEST PUSH1 0x20 MUL PUSH1 0x20 ADD ADD DUP2 SWAP1 MSTORE POP DUP1 DUP1 PUSH2 0x78F SWAP1 PUSH2 0x276A JUMP JUMPDEST SWAP2 POP POP PUSH2 0x6B0 JUMP JUMPDEST PUSH1 0x5 SLOAD PUSH1 0x60 SWAP1 PUSH1 0x0 DUP2 PUSH1 0x1 PUSH1 0x1 PUSH1 0x40 SHL SUB DUP2 GT ISZERO PUSH2 0x7B7 JUMPI PUSH2 0x7B7 PUSH2 0x26F4 JUMP JUMPDEST PUSH1 0x40 MLOAD SWAP1 DUP1 DUP3 MSTORE DUP1 PUSH1 0x20 MUL PUSH1 0x20 ADD DUP3 ADD PUSH1 0x40 MSTORE DUP1 ISZERO PUSH2 0x7EA JUMPI DUP2 PUSH1 0x20 ADD JUMPDEST PUSH1 0x60 DUP2 MSTORE PUSH1 0x20 ADD SWAP1 PUSH1 0x1 SWAP1 SUB SWAP1 DUP2 PUSH2 0x7D5 JUMPI SWAP1 POP JUMPDEST POP SWAP1 POP PUSH1 0x0 JUMPDEST DUP3 DUP2 LT ISZERO PUSH2 0x8D5 JUMPI PUSH1 0x5 DUP2 DUP2 SLOAD DUP2 LT PUSH2 0x80B JUMPI PUSH2 0x80B PUSH2 0x273E JUMP JUMPDEST SWAP1 PUSH1 0x0 MSTORE PUSH1 0x20 PUSH1 0x0 KECCAK256 SWAP1 PUSH1 0x5 MUL ADD PUSH1 0x1 ADD DUP1 SLOAD PUSH2 0x827 SWAP1 PUSH2 0x270A JUMP JUMPDEST DUP1 PUSH1 0x1F ADD PUSH1 0x20 DUP1 SWAP2 DIV MUL PUSH1 0x20 ADD PUSH1 0x40 MLOAD SWAP1 DUP2 ADD PUSH1 0x40 MSTORE DUP1 SWAP3 SWAP2 SWAP1 DUP2 DUP2 MSTORE PUSH1 0x20 ADD DUP3 DUP1 SLOAD PUSH2 0x853 SWAP1 PUSH2 0x270A JUMP JUMPDEST DUP1 ISZERO PUSH2 0x8A0 JUMPI DUP1 PUSH1 0x1F LT PUSH2 0x875 JUMPI PUSH2 0x100 DUP1 DUP4 SLOAD DIV MUL DUP4 MSTORE SWAP2 PUSH1 0x20 ADD SWAP2 PUSH2 0x8A0 JUMP JUMPDEST DUP3 ADD SWAP2 SWAP1 PUSH1 0x0 MSTORE PUSH1 0x20 PUSH1 0x0 KECCAK256 SWAP1 JUMPDEST DUP2 SLOAD DUP2 MSTORE SWAP1 PUSH1 0x1 ADD SWAP1 PUSH1 0x20 ADD DUP1 DUP4 GT PUSH2 0x883 JUMPI DUP3 SWAP1 SUB PUSH1 0x1F AND DUP3 ADD SWAP2 JUMPDEST POP POP POP POP POP DUP3 DUP3 DUP2 MLOAD DUP2 LT PUSH2 0x8B7 JUMPI PUSH2 0x8B7 PUSH2 0x273E JUMP JUMPDEST PUSH1 0x20 MUL PUSH1 0x20 ADD ADD DUP2 SWAP1 MSTORE POP DUP1 DUP1 PUSH2 0x8CD SWAP1 PUSH2 0x276A JUMP JUMPDEST SWAP2 POP POP PUSH2 0x7F0 JUMP JUMPDEST POP SWAP3 SWAP2 POP POP JUMP JUMPDEST PUSH32 0x0 TIMESTAMP LT ISZERO PUSH2 0x951 JUMPI PUSH1 0x40 MLOAD PUSH3 0x461BCD PUSH1 0xE5 SHL DUP2 MSTORE PUSH1 0x20 PUSH1 0x4 DUP3 ADD MSTORE PUSH1 0x1F PUSH1 0x24 DUP3 ADD MSTORE PUSH32 0x5375626D697373696F6E20706572696F64206E6F7420656E6465642079657400 PUSH1 0x44 DUP3 ADD MSTORE PUSH1 0x64 ADD JUMPDEST PUSH1 0x40 MLOAD DUP1 SWAP2 SUB SWAP1 REVERT JUMPDEST PUSH32 0x0 TIMESTAMP LT PUSH2 0x9C0 JUMPI PUSH1 0x40 MLOAD PUSH3 0x461BCD PUSH1 0xE5 SHL DUP2 MSTORE PUSH1 0x20 PUSH1 0x4 DUP3 ADD MSTORE PUSH1 0x1D PUSH1 0x24 DUP3 ADD MSTORE PUSH32 0x566F74696E6720706572696F6420616C72656164792073746172746564000000 PUSH1 0x44 DUP3 ADD MSTORE PUSH1 0x64 ADD PUSH2 0x948 JUMP JUMPDEST PUSH1 0x40 MLOAD PUSH32 0x6848CC2E2530BFA7461F82FE9638DAC1C8EF8165491C232A4EF11035B9372F97 SWAP1 PUSH1 0x0 SWAP1 LOG1 JUMP JUMPDEST PUSH1 0x60 PUSH1 0x40 MLOAD DUP1 PUSH1 0x80 ADD PUSH1 0x40 MSTORE DUP1 PUSH1 0x44 DUP2 MSTORE PUSH1 0x20 ADD PUSH2 0x2A4B PUSH1 0x44 SWAP2 CODECOPY SWAP1 POP SWAP1 JUMP JUMPDEST PUSH32 0x0 TIMESTAMP LT DUP1 PUSH2 0xA59 JUMPI POP PUSH32 0x0 TIMESTAMP LT ISZERO JUMPDEST ISZERO PUSH2 0xA77 JUMPI PUSH1 0x40 MLOAD PUSH4 0x473DCCA3 PUSH1 0xE1 SHL DUP2 MSTORE PUSH1 0x4 ADD PUSH1 0x40 MLOAD DUP1 SWAP2 SUB SWAP1 REVERT JUMPDEST PUSH8 0x2C68AF0BB140000 PUSH32 0x0 PUSH1 0x1 PUSH1 0x1 PUSH1 0xA0 SHL SUB AND BALANCE LT ISZERO PUSH2 0xB03 JUMPI PUSH1 0x40 MLOAD PUSH3 0xFAE2D5 PUSH1 0xE2 SHL DUP2 MSTORE PUSH8 0x2C68AF0BB140000 PUSH1 0x4 DUP3 ADD MSTORE PUSH1 0x1 PUSH1 0x1 PUSH1 0xA0 SHL SUB PUSH32 0x0 AND BALANCE PUSH1 0x24 DUP3 ADD MSTORE PUSH1 0x44 ADD PUSH2 0x948 JUMP JUMPDEST PUSH1 0x0 DUP6 DUP6 PUSH1 0x40 MLOAD PUSH1 0x20 ADD PUSH2 0xB18 SWAP3 SWAP2 SWAP1 PUSH2 0x2783 JUMP JUMPDEST PUSH1 0x40 MLOAD PUSH1 0x20 DUP2 DUP4 SUB SUB DUP2 MSTORE SWAP1 PUSH1 0x40 MSTORE DUP1 MLOAD SWAP1 PUSH1 0x20 ADD KECCAK256 SWAP1 POP PUSH1 0x0 DUP5 DUP5 PUSH1 0x40 MLOAD PUSH1 0x20 ADD PUSH2 0xB45 SWAP3 SWAP2 SWAP1 PUSH2 0x2783 JUMP JUMPDEST PUSH1 0x40 DUP1 MLOAD PUSH1 0x1F NOT DUP2 DUP5 SUB ADD DUP2 MSTORE SWAP2 DUP2 MSTORE DUP2 MLOAD PUSH1 0x20 SWAP3 DUP4 ADD KECCAK256 PUSH1 0x0 DUP2 DUP2 MSTORE PUSH1 0x1 SWAP1 SWAP4 MSTORE SWAP2 KECCAK256 SLOAD SWAP1 SWAP2 POP PUSH1 0xFF AND ISZERO PUSH2 0xB8E JUMPI PUSH1 0x40 MLOAD PUSH4 0xE596F2C9 PUSH1 0xE0 SHL DUP2 MSTORE PUSH1 0x4 ADD PUSH1 0x40 MLOAD DUP1 SWAP2 SUB SWAP1 REVERT JUMPDEST PUSH1 0x5 PUSH1 0x40 MLOAD DUP1 PUSH1 0xA0 ADD PUSH1 0x40 MSTORE DUP1 PUSH1 0x0 ISZERO ISZERO DUP2 MSTORE PUSH1 0x20 ADD DUP12 DUP12 DUP1 DUP1 PUSH1 0x1F ADD PUSH1 0x20 DUP1 SWAP2 DIV MUL PUSH1 0x20 ADD PUSH1 0x40 MLOAD SWAP1 DUP2 ADD PUSH1 0x40 MSTORE DUP1 SWAP4 SWAP3 SWAP2 SWAP1 DUP2 DUP2 MSTORE PUSH1 0x20 ADD DUP4 DUP4 DUP1 DUP3 DUP5 CALLDATACOPY PUSH1 0x0 SWAP3 ADD DUP3 SWAP1 MSTORE POP SWAP4 DUP6 MSTORE POP POP POP PUSH1 0x20 DUP1 DUP4 ADD DUP8 SWAP1 MSTORE PUSH1 0x40 DUP4 ADD DUP7 SWAP1 MSTORE PUSH1 0x1 PUSH1 0x1 PUSH1 0xA0 SHL SUB DUP9 AND PUSH1 0x60 SWAP1 SWAP4 ADD SWAP3 SWAP1 SWAP3 MSTORE DUP4 SLOAD PUSH1 0x1 DUP1 DUP3 ADD DUP7 SSTORE SWAP5 DUP3 MSTORE SWAP1 DUP3 SWAP1 KECCAK256 DUP4 MLOAD PUSH1 0x5 SWAP1 SWAP3 MUL ADD DUP1 SLOAD PUSH1 0xFF NOT AND SWAP2 ISZERO ISZERO SWAP2 SWAP1 SWAP2 OR DUP2 SSTORE SWAP1 DUP3 ADD MLOAD SWAP2 SWAP3 SWAP1 SWAP2 SWAP1 DUP3 ADD SWAP1 PUSH2 0xC3B SWAP1 DUP3 PUSH2 0x27E2 JUMP JUMPDEST POP PUSH1 0x40 DUP3 DUP2 ADD MLOAD PUSH1 0x2 DUP4 ADD SSTORE PUSH1 0x60 DUP4 ADD MLOAD PUSH1 0x3 DUP4 ADD SSTORE PUSH1 0x80 SWAP1 SWAP3 ADD MLOAD PUSH1 0x4 SWAP1 SWAP2 ADD DUP1 SLOAD PUSH1 0x1 PUSH1 0x1 PUSH1 0xA0 SHL SUB NOT AND PUSH1 0x1 PUSH1 0x1 PUSH1 0xA0 SHL SUB SWAP1 SWAP3 AND SWAP2 SWAP1 SWAP2 OR SWAP1 SSTORE PUSH1 0x0 DUP3 DUP2 MSTORE PUSH1 0x1 PUSH1 0x20 DUP2 SWAP1 MSTORE SWAP2 SWAP1 KECCAK256 DUP1 SLOAD PUSH1 0xFF NOT AND DUP3 OR SWAP1 SSTORE PUSH1 0x5 SLOAD PUSH2 0xC9F SWAP2 SWAP1 PUSH2 0x28A1 JUMP JUMPDEST PUSH1 0x6 DUP11 DUP11 PUSH1 0x40 MLOAD PUSH2 0xCB1 SWAP3 SWAP2 SWAP1 PUSH2 0x2783 JUMP JUMPDEST SWAP1 DUP2 MSTORE PUSH1 0x20 ADD PUSH1 0x40 MLOAD DUP1 SWAP2 SUB SWAP1 KECCAK256 DUP2 SWAP1 SSTORE POP PUSH32 0x25FA020410F93DD67A3A159F79643D537687B863F9C07F13A0FA800D64648A1D DUP10 DUP10 PUSH1 0x40 MLOAD PUSH2 0xCF4 SWAP3 SWAP2 SWAP1 PUSH2 0x28DD JUMP JUMPDEST PUSH1 0x40 MLOAD DUP1 SWAP2 SUB SWAP1 LOG1 POP POP POP POP POP POP POP POP POP JUMP JUMPDEST PUSH1 0x0 DUP1 DUP4 DUP4 PUSH1 0x40 MLOAD PUSH1 0x20 ADD PUSH2 0xD1D SWAP3 SWAP2 SWAP1 PUSH2 0x2783 JUMP JUMPDEST PUSH1 0x40 DUP1 MLOAD PUSH1 0x1F NOT DUP2 DUP5 SUB ADD DUP2 MSTORE SWAP2 DUP2 MSTORE DUP2 MLOAD PUSH1 0x20 SWAP3 DUP4 ADD KECCAK256 PUSH1 0x0 SWAP1 DUP2 MSTORE PUSH1 0x1 SWAP1 SWAP3 MSTORE SWAP1 KECCAK256 SLOAD PUSH1 0xFF AND SWAP2 POP POP JUMPDEST SWAP3 SWAP2 POP POP JUMP JUMPDEST PUSH1 0x8 DUP2 DUP2 SLOAD DUP2 LT PUSH2 0xD5F JUMPI PUSH1 0x0 DUP1 REVERT JUMPDEST SWAP1 PUSH1 0x0 MSTORE PUSH1 0x20 PUSH1 0x0 KECCAK256 SWAP1 PUSH1 0x2 MUL ADD PUSH1 0x0 SWAP2 POP SWAP1 POP DUP1 PUSH1 0x0 ADD DUP1 SLOAD PUSH2 0xD82 SWAP1 PUSH2 0x270A JUMP JUMPDEST DUP1 PUSH1 0x1F ADD PUSH1 0x20 DUP1 SWAP2 DIV MUL PUSH1 0x20 ADD PUSH1 0x40 MLOAD SWAP1 DUP2 ADD PUSH1 0x40 MSTORE DUP1 SWAP3 SWAP2 SWAP1 DUP2 DUP2 MSTORE PUSH1 0x20 ADD DUP3 DUP1 SLOAD PUSH2 0xDAE SWAP1 PUSH2 0x270A JUMP JUMPDEST DUP1 ISZERO PUSH2 0xDFB JUMPI DUP1 PUSH1 0x1F LT PUSH2 0xDD0 JUMPI PUSH2 0x100 DUP1 DUP4 SLOAD DIV MUL DUP4 MSTORE SWAP2 PUSH1 0x20 ADD SWAP2 PUSH2 0xDFB JUMP JUMPDEST DUP3 ADD SWAP2 SWAP1 PUSH1 0x0 MSTORE PUSH1 0x20 PUSH1 0x0 KECCAK256 SWAP1 JUMPDEST DUP2 SLOAD DUP2 MSTORE SWAP1 PUSH1 0x1 ADD SWAP1 PUSH1 0x20 ADD DUP1 DUP4 GT PUSH2 0xDDE JUMPI DUP3 SWAP1 SUB PUSH1 0x1F AND DUP3 ADD SWAP2 JUMPDEST POP POP POP POP POP SWAP1 DUP1 PUSH1 0x1 ADD SLOAD SWAP1 POP DUP3 JUMP JUMPDEST PUSH32 0x0 TIMESTAMP LT DUP1 PUSH2 0xE59 JUMPI POP PUSH32 0x0 TIMESTAMP LT ISZERO JUMPDEST ISZERO PUSH2 0xE77 JUMPI PUSH1 0x40 MLOAD PUSH4 0x287A88BF PUSH1 0xE2 SHL DUP2 MSTORE PUSH1 0x4 ADD PUSH1 0x40 MLOAD DUP1 SWAP2 SUB SWAP1 REVERT JUMPDEST PUSH8 0x2C68AF0BB140000 PUSH32 0x0 PUSH1 0x1 PUSH1 0x1 PUSH1 0xA0 SHL SUB AND BALANCE LT ISZERO PUSH2 0xF03 JUMPI PUSH1 0x40 MLOAD PUSH3 0xFAE2D5 PUSH1 0xE2 SHL DUP2 MSTORE PUSH8 0x2C68AF0BB140000 PUSH1 0x4 DUP3 ADD MSTORE PUSH1 0x1 PUSH1 0x1 PUSH1 0xA0 SHL SUB PUSH32 0x0 AND BALANCE PUSH1 0x24 DUP3 ADD MSTORE PUSH1 0x44 ADD PUSH2 0x948 JUMP JUMPDEST PUSH1 0x8 SLOAD PUSH1 0x40 MLOAD PUSH1 0x9 SWAP1 PUSH2 0xF19 SWAP1 DUP10 SWAP1 DUP10 SWAP1 PUSH2 0x2783 JUMP JUMPDEST SWAP1 DUP2 MSTORE PUSH1 0x20 ADD PUSH1 0x40 MLOAD DUP1 SWAP2 SUB SWAP1 KECCAK256 SLOAD LT PUSH2 0xF46 JUMPI PUSH1 0x40 MLOAD PUSH4 0xE66EA08F PUSH1 0xE0 SHL DUP2 MSTORE PUSH1 0x4 ADD PUSH1 0x40 MLOAD DUP1 SWAP2 SUB SWAP1 REVERT JUMPDEST PUSH1 0x0 PUSH1 0x6 DUP6 DUP6 PUSH1 0x40 MLOAD PUSH2 0xF5A SWAP3 SWAP2 SWAP1 PUSH2 0x2783 JUMP JUMPDEST SWAP1 DUP2 MSTORE PUSH1 0x20 ADD PUSH1 0x40 MLOAD DUP1 SWAP2 SUB SWAP1 KECCAK256 SLOAD SWAP1 POP PUSH1 0x0 PUSH1 0x5 DUP3 DUP2 SLOAD DUP2 LT PUSH2 0xF80 JUMPI PUSH2 0xF80 PUSH2 0x273E JUMP JUMPDEST PUSH1 0x0 SWAP2 DUP3 MSTORE PUSH1 0x20 SWAP1 SWAP2 KECCAK256 PUSH1 0x5 SWAP1 SWAP2 MUL ADD PUSH1 0x4 DUP2 ADD SLOAD DUP2 SLOAD SWAP2 SWAP3 POP PUSH1 0x1 PUSH1 0x1 PUSH1 0xA0 SHL SUB AND SWAP1 PUSH1 0xFF AND ISZERO PUSH2 0xFC4 JUMPI PUSH1 0x40 MLOAD PUSH3 0x836C47 PUSH1 0xE8 SHL DUP2 MSTORE PUSH1 0x4 ADD PUSH1 0x40 MLOAD DUP1 SWAP2 SUB SWAP1 REVERT JUMPDEST PUSH1 0x0 DUP10 DUP10 DUP10 DUP10 PUSH1 0x40 MLOAD PUSH1 0x20 ADD PUSH2 0xFDD SWAP5 SWAP4 SWAP3 SWAP2 SWAP1 PUSH2 0x28F9 JUMP JUMPDEST PUSH1 0x40 MLOAD PUSH1 0x20 DUP2 DUP4 SUB SUB DUP2 MSTORE SWAP1 PUSH1 0x40 MSTORE DUP1 MLOAD SWAP1 PUSH1 0x20 ADD KECCAK256 SWAP1 POP PUSH1 0x0 DUP2 PUSH1 0x40 MLOAD PUSH1 0x20 ADD PUSH2 0x1034 SWAP2 SWAP1 PUSH32 0x19457468657265756D205369676E6564204D6573736167653A0A333200000000 DUP2 MSTORE PUSH1 0x1C DUP2 ADD SWAP2 SWAP1 SWAP2 MSTORE PUSH1 0x3C ADD SWAP1 JUMP JUMPDEST PUSH1 0x40 MLOAD PUSH1 0x20 DUP2 DUP4 SUB SUB DUP2 MSTORE SWAP1 PUSH1 0x40 MSTORE DUP1 MLOAD SWAP1 PUSH1 0x20 ADD KECCAK256 SWAP1 POP PUSH1 0x0 PUSH2 0x1059 DUP3 DUP10 DUP10 PUSH2 0x157C JUMP JUMPDEST SWAP1 POP DUP4 PUSH1 0x1 PUSH1 0x1 PUSH1 0xA0 SHL SUB AND DUP2 PUSH1 0x1 PUSH1 0x1 PUSH1 0xA0 SHL SUB AND EQ PUSH2 0x10CE JUMPI PUSH1 0x40 MLOAD PUSH3 0x461BCD PUSH1 0xE5 SHL DUP2 MSTORE PUSH1 0x20 PUSH1 0x4 DUP3 ADD MSTORE PUSH1 0x29 PUSH1 0x24 DUP3 ADD MSTORE PUSH32 0x5369676E617475726520646F6573206E6F74206D617463682072656769737465 PUSH1 0x44 DUP3 ADD MSTORE PUSH9 0x3932B2103B37BA32B9 PUSH1 0xB9 SHL PUSH1 0x64 DUP3 ADD MSTORE PUSH1 0x84 ADD PUSH2 0x948 JUMP JUMPDEST PUSH2 0x10D9 DUP3 DUP10 DUP10 PUSH2 0x157C JUMP JUMPDEST POP DUP5 SLOAD PUSH1 0xFF NOT AND PUSH1 0x1 OR DUP6 SSTORE PUSH1 0x40 MLOAD PUSH1 0x8 SWAP1 PUSH1 0x9 SWAP1 PUSH2 0x10FB SWAP1 DUP16 SWAP1 DUP16 SWAP1 PUSH2 0x2783 JUMP JUMPDEST SWAP1 DUP2 MSTORE PUSH1 0x20 ADD PUSH1 0x40 MLOAD DUP1 SWAP2 SUB SWAP1 KECCAK256 SLOAD DUP2 SLOAD DUP2 LT PUSH2 0x111A JUMPI PUSH2 0x111A PUSH2 0x273E JUMP JUMPDEST PUSH1 0x0 SWAP2 DUP3 MSTORE PUSH1 0x20 DUP3 KECCAK256 PUSH1 0x1 PUSH1 0x2 SWAP1 SWAP3 MUL ADD ADD DUP1 SLOAD SWAP2 PUSH2 0x1138 DUP4 PUSH2 0x276A JUMP JUMPDEST SWAP2 SWAP1 POP SSTORE POP PUSH32 0xDD4C99251F425E725972FF09E5348689020FCE09B3B010F8573D992FE79AFCF1 DUP13 DUP13 PUSH1 0x40 MLOAD PUSH2 0x116E SWAP3 SWAP2 SWAP1 PUSH2 0x28DD JUMP JUMPDEST PUSH1 0x40 MLOAD DUP1 SWAP2 SUB SWAP1 LOG1 POP POP POP POP POP POP POP POP POP POP POP POP JUMP JUMPDEST PUSH32 0x0 TIMESTAMP LT ISZERO PUSH2 0x11FE JUMPI PUSH1 0x40 MLOAD PUSH3 0x461BCD PUSH1 0xE5 SHL DUP2 MSTORE PUSH1 0x20 PUSH1 0x4 DUP3 ADD MSTORE PUSH1 0x21 PUSH1 0x24 DUP3 ADD MSTORE PUSH32 0x526567697374726174696F6E20706572696F64206E6F7420656E646564207965 PUSH1 0x44 DUP3 ADD MSTORE PUSH1 0x1D PUSH1 0xFA SHL PUSH1 0x64 DUP3 ADD MSTORE PUSH1 0x84 ADD PUSH2 0x948 JUMP JUMPDEST PUSH32 0x0 TIMESTAMP LT PUSH2 0x1277 JUMPI PUSH1 0x40 MLOAD PUSH3 0x461BCD PUSH1 0xE5 SHL DUP2 MSTORE PUSH1 0x20 PUSH1 0x4 DUP3 ADD MSTORE PUSH1 0x21 PUSH1 0x24 DUP3 ADD MSTORE PUSH32 0x5375626D697373696F6E20706572696F6420616C726561647920737461727465 PUSH1 0x44 DUP3 ADD MSTORE PUSH1 0x19 PUSH1 0xFA SHL PUSH1 0x64 DUP3 ADD MSTORE PUSH1 0x84 ADD PUSH2 0x948 JUMP JUMPDEST PUSH1 0x40 MLOAD PUSH32 0x2EE88F50F05558E39B34A18214FF6A6ADC091504772084C6CE7899354BEC0AA4 SWAP1 PUSH1 0x0 SWAP1 LOG1 JUMP JUMPDEST PUSH1 0x60 PUSH1 0x0 PUSH1 0x7 SLOAD PUSH1 0x1 PUSH1 0x1 PUSH1 0x40 SHL SUB DUP2 GT ISZERO PUSH2 0x12C0 JUMPI PUSH2 0x12C0 PUSH2 0x26F4 JUMP JUMPDEST PUSH1 0x40 MLOAD SWAP1 DUP1 DUP3 MSTORE DUP1 PUSH1 0x20 MUL PUSH1 0x20 ADD DUP3 ADD PUSH1 0x40 MSTORE DUP1 ISZERO PUSH2 0x12F3 JUMPI DUP2 PUSH1 0x20 ADD JUMPDEST PUSH1 0x60 DUP2 MSTORE PUSH1 0x20 ADD SWAP1 PUSH1 0x1 SWAP1 SUB SWAP1 DUP2 PUSH2 0x12DE JUMPI SWAP1 POP JUMPDEST POP SWAP1 POP PUSH1 0x0 JUMPDEST PUSH1 0x7 SLOAD DUP2 LT ISZERO PUSH2 0x651 JUMPI PUSH1 0x0 DUP2 DUP2 MSTORE PUSH1 0x3 PUSH1 0x20 MSTORE PUSH1 0x40 DUP2 KECCAK256 DUP1 SLOAD PUSH2 0x131C SWAP1 PUSH2 0x270A JUMP JUMPDEST DUP1 PUSH1 0x1F ADD PUSH1 0x20 DUP1 SWAP2 DIV MUL PUSH1 0x20 ADD PUSH1 0x40 MLOAD SWAP1 DUP2 ADD PUSH1 0x40 MSTORE DUP1 SWAP3 SWAP2 SWAP1 DUP2 DUP2 MSTORE PUSH1 0x20 ADD DUP3 DUP1 SLOAD PUSH2 0x1348 SWAP1 PUSH2 0x270A JUMP JUMPDEST DUP1 ISZERO PUSH2 0x1395 JUMPI DUP1 PUSH1 0x1F LT PUSH2 0x136A JUMPI PUSH2 0x100 DUP1 DUP4 SLOAD DIV MUL DUP4 MSTORE SWAP2 PUSH1 0x20 ADD SWAP2 PUSH2 0x1395 JUMP JUMPDEST DUP3 ADD SWAP2 SWAP1 PUSH1 0x0 MSTORE PUSH1 0x20 PUSH1 0x0 KECCAK256 SWAP1 JUMPDEST DUP2 SLOAD DUP2 MSTORE SWAP1 PUSH1 0x1 ADD SWAP1 PUSH1 0x20 ADD DUP1 DUP4 GT PUSH2 0x1378 JUMPI DUP3 SWAP1 SUB PUSH1 0x1F AND DUP3 ADD SWAP2 JUMPDEST POP POP POP POP POP SWAP1 POP PUSH1 0x4 DUP2 PUSH1 0x40 MLOAD PUSH2 0x13AC SWAP2 SWAP1 PUSH2 0x291B JUMP JUMPDEST SWAP1 DUP2 MSTORE PUSH1 0x20 ADD PUSH1 0x40 MLOAD DUP1 SWAP2 SUB SWAP1 KECCAK256 DUP1 SLOAD PUSH2 0x13C5 SWAP1 PUSH2 0x270A JUMP JUMPDEST DUP1 PUSH1 0x1F ADD PUSH1 0x20 DUP1 SWAP2 DIV MUL PUSH1 0x20 ADD PUSH1 0x40 MLOAD SWAP1 DUP2 ADD PUSH1 0x40 MSTORE DUP1 SWAP3 SWAP2 SWAP1 DUP2 DUP2 MSTORE PUSH1 0x20 ADD DUP3 DUP1 SLOAD PUSH2 0x13F1 SWAP1 PUSH2 0x270A JUMP JUMPDEST DUP1 ISZERO PUSH2 0x143E JUMPI DUP1 PUSH1 0x1F LT PUSH2 0x1413 JUMPI PUSH2 0x100 DUP1 DUP4 SLOAD DIV MUL DUP4 MSTORE SWAP2 PUSH1 0x20 ADD SWAP2 PUSH2 0x143E JUMP JUMPDEST DUP3 ADD SWAP2 SWAP1 PUSH1 0x0 MSTORE PUSH1 0x20 PUSH1 0x0 KECCAK256 SWAP1 JUMPDEST DUP2 SLOAD DUP2 MSTORE SWAP1 PUSH1 0x1 ADD SWAP1 PUSH1 0x20 ADD DUP1 DUP4 GT PUSH2 0x1421 JUMPI DUP3 SWAP1 SUB PUSH1 0x1F AND DUP3 ADD SWAP2 JUMPDEST POP POP POP POP POP DUP4 DUP4 DUP2 MLOAD DUP2 LT PUSH2 0x1455 JUMPI PUSH2 0x1455 PUSH2 0x273E JUMP JUMPDEST PUSH1 0x20 MUL PUSH1 0x20 ADD ADD DUP2 SWAP1 MSTORE POP POP DUP1 DUP1 PUSH2 0x146C SWAP1 PUSH2 0x276A JUMP JUMPDEST SWAP2 POP POP PUSH2 0x12F9 JUMP JUMPDEST PUSH1 0x0 PUSH1 0x2 DUP4 DUP4 PUSH1 0x40 MLOAD PUSH2 0x1488 SWAP3 SWAP2 SWAP1 PUSH2 0x2783 JUMP JUMPDEST SWAP1 DUP2 MSTORE PUSH1 0x40 MLOAD SWAP1 DUP2 SWAP1 SUB PUSH1 0x20 ADD SWAP1 KECCAK256 SLOAD PUSH1 0xFF AND SWAP1 POP SWAP3 SWAP2 POP POP JUMP JUMPDEST PUSH1 0x60 PUSH1 0x0 DUP1 SLOAD DUP1 PUSH1 0x20 MUL PUSH1 0x20 ADD PUSH1 0x40 MLOAD SWAP1 DUP2 ADD PUSH1 0x40 MSTORE DUP1 SWAP3 SWAP2 SWAP1 DUP2 DUP2 MSTORE PUSH1 0x20 ADD PUSH1 0x0 SWAP1 JUMPDEST DUP3 DUP3 LT ISZERO PUSH2 0x1573 JUMPI DUP4 DUP3 SWAP1 PUSH1 0x0 MSTORE PUSH1 0x20 PUSH1 0x0 KECCAK256 ADD DUP1 SLOAD PUSH2 0x14E6 SWAP1 PUSH2 0x270A JUMP JUMPDEST DUP1 PUSH1 0x1F ADD PUSH1 0x20 DUP1 SWAP2 DIV MUL PUSH1 0x20 ADD PUSH1 0x40 MLOAD SWAP1 DUP2 ADD PUSH1 0x40 MSTORE DUP1 SWAP3 SWAP2 SWAP1 DUP2 DUP2 MSTORE PUSH1 0x20 ADD DUP3 DUP1 SLOAD PUSH2 0x1512 SWAP1 PUSH2 0x270A JUMP JUMPDEST DUP1 ISZERO PUSH2 0x155F JUMPI DUP1 PUSH1 0x1F LT PUSH2 0x1534 JUMPI PUSH2 0x100 DUP1 DUP4 SLOAD DIV MUL DUP4 MSTORE SWAP2 PUSH1 0x20 ADD SWAP2 PUSH2 0x155F JUMP JUMPDEST DUP3 ADD SWAP2 SWAP1 PUSH1 0x0 MSTORE PUSH1 0x20 PUSH1 0x0 KECCAK256 SWAP1 JUMPDEST DUP2 SLOAD DUP2 MSTORE SWAP1 PUSH1 0x1 ADD SWAP1 PUSH1 0x20 ADD DUP1 DUP4 GT PUSH2 0x1542 JUMPI DUP3 SWAP1 SUB PUSH1 0x1F AND DUP3 ADD SWAP2 JUMPDEST POP POP POP POP POP DUP2 MSTORE PUSH1 0x20 ADD SWAP1 PUSH1 0x1 ADD SWAP1 PUSH2 0x14C7 JUMP JUMPDEST POP POP POP POP SWAP1 POP SWAP1 JUMP JUMPDEST PUSH1 0x0 PUSH1 0x41 DUP3 EQ PUSH2 0x159F JUMPI PUSH1 0x40 MLOAD PUSH4 0x4BE6321B PUSH1 0xE0 SHL DUP2 MSTORE PUSH1 0x4 ADD PUSH1 0x40 MLOAD DUP1 SWAP2 SUB SWAP1 REVERT JUMPDEST DUP3 CALLDATALOAD PUSH1 0x20 DUP5 ADD CALLDATALOAD PUSH1 0x40 DUP6 ADD CALLDATALOAD PUSH1 0x0 BYTE PUSH1 0x1B DUP2 LT ISZERO PUSH2 0x15C5 JUMPI PUSH2 0x15C2 PUSH1 0x1B DUP3 PUSH2 0x2937 JUMP JUMPDEST SWAP1 POP JUMPDEST PUSH1 0x40 DUP1 MLOAD PUSH1 0x0 DUP1 DUP3 MSTORE PUSH1 0x20 DUP3 ADD DUP1 DUP5 MSTORE DUP11 SWAP1 MSTORE PUSH1 0xFF DUP5 AND SWAP3 DUP3 ADD SWAP3 SWAP1 SWAP3 MSTORE PUSH1 0x60 DUP2 ADD DUP6 SWAP1 MSTORE PUSH1 0x80 DUP2 ADD DUP5 SWAP1 MSTORE PUSH1 0x1 SWAP1 PUSH1 0xA0 ADD PUSH1 0x20 PUSH1 0x40 MLOAD PUSH1 0x20 DUP2 SUB SWAP1 DUP1 DUP5 SUB SWAP1 DUP6 GAS STATICCALL ISZERO DUP1 ISZERO PUSH2 0x1619 JUMPI RETURNDATASIZE PUSH1 0x0 DUP1 RETURNDATACOPY RETURNDATASIZE PUSH1 0x0 REVERT JUMPDEST POP POP PUSH1 0x40 MLOAD PUSH1 0x1F NOT ADD MLOAD SWAP2 POP POP PUSH1 0x1 PUSH1 0x1 PUSH1 0xA0 SHL SUB DUP2 AND PUSH2 0x164D JUMPI PUSH1 0x40 MLOAD PUSH4 0x8BAA579F PUSH1 0xE0 SHL DUP2 MSTORE PUSH1 0x4 ADD PUSH1 0x40 MLOAD DUP1 SWAP2 SUB SWAP1 REVERT JUMPDEST SWAP8 SWAP7 POP POP POP POP POP POP POP JUMP JUMPDEST PUSH1 0x60 PUSH32 0x0 TIMESTAMP LT ISZERO PUSH2 0x16A9 JUMPI POP PUSH1 0x40 DUP1 MLOAD DUP1 DUP3 ADD SWAP1 SWAP2 MSTORE PUSH1 0xC DUP2 MSTORE PUSH12 0x2932B3B4B9BA3930BA34B7B7 PUSH1 0xA1 SHL PUSH1 0x20 DUP3 ADD MSTORE SWAP1 JUMP JUMPDEST PUSH32 0x0 TIMESTAMP LT ISZERO PUSH2 0x16F6 JUMPI POP PUSH1 0x40 DUP1 MLOAD DUP1 DUP3 ADD SWAP1 SWAP2 MSTORE PUSH1 0xA DUP2 MSTORE PUSH10 0x29BAB136B4B9B9B4B7B7 PUSH1 0xB1 SHL PUSH1 0x20 DUP3 ADD MSTORE SWAP1 JUMP JUMPDEST PUSH32 0x0 TIMESTAMP LT ISZERO PUSH2 0x173F JUMPI POP PUSH1 0x40 DUP1 MLOAD DUP1 DUP3 ADD SWAP1 SWAP2 MSTORE PUSH1 0x6 DUP2 MSTORE PUSH6 0x566F74696E67 PUSH1 0xD0 SHL PUSH1 0x20 DUP3 ADD MSTORE SWAP1 JUMP JUMPDEST POP PUSH1 0x40 DUP1 MLOAD DUP1 DUP3 ADD SWAP1 SWAP2 MSTORE PUSH1 0x7 DUP2 MSTORE PUSH7 0x526573756C7473 PUSH1 0xC8 SHL PUSH1 0x20 DUP3 ADD MSTORE SWAP1 JUMP JUMPDEST PUSH1 0x60 PUSH1 0x2 DUP4 DUP4 PUSH1 0x40 MLOAD PUSH2 0x1775 SWAP3 SWAP2 SWAP1 PUSH2 0x2783 JUMP JUMPDEST SWAP1 DUP2 MSTORE PUSH1 0x40 MLOAD SWAP1 DUP2 SWAP1 SUB PUSH1 0x20 ADD SWAP1 KECCAK256 SLOAD PUSH1 0xFF AND PUSH2 0x17A5 JUMPI PUSH1 0x40 MLOAD PUSH4 0x173B713 PUSH1 0xE3 SHL DUP2 MSTORE PUSH1 0x4 ADD PUSH1 0x40 MLOAD DUP1 SWAP2 SUB SWAP1 REVERT JUMPDEST PUSH1 0x4 DUP4 DUP4 PUSH1 0x40 MLOAD PUSH2 0x17B7 SWAP3 SWAP2 SWAP1 PUSH2 0x2783 JUMP JUMPDEST SWAP1 DUP2 MSTORE PUSH1 0x20 ADD PUSH1 0x40 MLOAD DUP1 SWAP2 SUB SWAP1 KECCAK256 DUP1 SLOAD PUSH2 0x17D0 SWAP1 PUSH2 0x270A JUMP JUMPDEST DUP1 PUSH1 0x1F ADD PUSH1 0x20 DUP1 SWAP2 DIV MUL PUSH1 0x20 ADD PUSH1 0x40 MLOAD SWAP1 DUP2 ADD PUSH1 0x40 MSTORE DUP1 SWAP3 SWAP2 SWAP1 DUP2 DUP2 MSTORE PUSH1 0x20 ADD DUP3 DUP1 SLOAD PUSH2 0x17FC SWAP1 PUSH2 0x270A JUMP JUMPDEST DUP1 ISZERO PUSH2 0x1849 JUMPI DUP1 PUSH1 0x1F LT PUSH2 0x181E JUMPI PUSH2 0x100 DUP1 DUP4 SLOAD DIV MUL DUP4 MSTORE SWAP2 PUSH1 0x20 ADD SWAP2 PUSH2 0x1849 JUMP JUMPDEST DUP3 ADD SWAP2 SWAP1 PUSH1 0x0 MSTORE PUSH1 0x20 PUSH1 0x0 KECCAK256 SWAP1 JUMPDEST DUP2 SLOAD DUP2 MSTORE SWAP1 PUSH1 0x1 ADD SWAP1 PUSH1 0x20 ADD DUP1 DUP4 GT PUSH2 0x182C JUMPI DUP3 SWAP1 SUB PUSH1 0x1F AND DUP3 ADD SWAP2 JUMPDEST POP POP POP POP POP SWAP1 POP SWAP3 SWAP2 POP POP JUMP JUMPDEST PUSH1 0x40 MLOAD DUP1 PUSH1 0x80 ADD PUSH1 0x40 MSTORE DUP1 PUSH1 0x44 DUP2 MSTORE PUSH1 0x20 ADD PUSH2 0x2A4B PUSH1 0x44 SWAP2 CODECOPY DUP2 JUMP JUMPDEST PUSH1 0x5 SLOAD PUSH1 0x60 SWAP1 DUP2 SWAP1 DUP2 SWAP1 DUP1 PUSH1 0x1 PUSH1 0x1 PUSH1 0x40 SHL SUB DUP2 GT ISZERO PUSH2 0x1894 JUMPI PUSH2 0x1894 PUSH2 0x26F4 JUMP JUMPDEST PUSH1 0x40 MLOAD SWAP1 DUP1 DUP3 MSTORE DUP1 PUSH1 0x20 MUL PUSH1 0x20 ADD DUP3 ADD PUSH1 0x40 MSTORE DUP1 ISZERO PUSH2 0x18C7 JUMPI DUP2 PUSH1 0x20 ADD JUMPDEST PUSH1 0x60 DUP2 MSTORE PUSH1 0x20 ADD SWAP1 PUSH1 0x1 SWAP1 SUB SWAP1 DUP2 PUSH2 0x18B2 JUMPI SWAP1 POP JUMPDEST POP SWAP4 POP DUP1 PUSH1 0x1 PUSH1 0x1 PUSH1 0x40 SHL SUB DUP2 GT ISZERO PUSH2 0x18E2 JUMPI PUSH2 0x18E2 PUSH2 0x26F4 JUMP JUMPDEST PUSH1 0x40 MLOAD SWAP1 DUP1 DUP3 MSTORE DUP1 PUSH1 0x20 MUL PUSH1 0x20 ADD DUP3 ADD PUSH1 0x40 MSTORE DUP1 ISZERO PUSH2 0x190B JUMPI DUP2 PUSH1 0x20 ADD PUSH1 0x20 DUP3 MUL DUP1 CALLDATASIZE DUP4 CALLDATACOPY ADD SWAP1 POP JUMPDEST POP SWAP3 POP DUP1 PUSH1 0x1 PUSH1 0x1 PUSH1 0x40 SHL SUB DUP2 GT ISZERO PUSH2 0x1926 JUMPI PUSH2 0x1926 PUSH2 0x26F4 JUMP JUMPDEST PUSH1 0x40 MLOAD SWAP1 DUP1 DUP3 MSTORE DUP1 PUSH1 0x20 MUL PUSH1 0x20 ADD DUP3 ADD PUSH1 0x40 MSTORE DUP1 ISZERO PUSH2 0x194F JUMPI DUP2 PUSH1 0x20 ADD PUSH1 0x20 DUP3 MUL DUP1 CALLDATASIZE DUP4 CALLDATACOPY ADD SWAP1 POP JUMPDEST POP SWAP2 POP PUSH1 0x0 JUMPDEST DUP2 DUP2 LT ISZERO PUSH2 0x1ABE JUMPI PUSH1 0x5 DUP2 DUP2 SLOAD DUP2 LT PUSH2 0x1970 JUMPI PUSH2 0x1970 PUSH2 0x273E JUMP JUMPDEST SWAP1 PUSH1 0x0 MSTORE PUSH1 0x20 PUSH1 0x0 KECCAK256 SWAP1 PUSH1 0x5 MUL ADD PUSH1 0x1 ADD DUP1 SLOAD PUSH2 0x198C SWAP1 PUSH2 0x270A JUMP JUMPDEST DUP1 PUSH1 0x1F ADD PUSH1 0x20 DUP1 SWAP2 DIV MUL PUSH1 0x20 ADD PUSH1 0x40 MLOAD SWAP1 DUP2 ADD PUSH1 0x40 MSTORE DUP1 SWAP3 SWAP2 SWAP1 DUP2 DUP2 MSTORE PUSH1 0x20 ADD DUP3 DUP1 SLOAD PUSH2 0x19B8 SWAP1 PUSH2 0x270A JUMP JUMPDEST DUP1 ISZERO PUSH2 0x1A05 JUMPI DUP1 PUSH1 0x1F LT PUSH2 0x19DA JUMPI PUSH2 0x100 DUP1 DUP4 SLOAD DIV MUL DUP4 MSTORE SWAP2 PUSH1 0x20 ADD SWAP2 PUSH2 0x1A05 JUMP JUMPDEST DUP3 ADD SWAP2 SWAP1 PUSH1 0x0 MSTORE PUSH1 0x20 PUSH1 0x0 KECCAK256 SWAP1 JUMPDEST DUP2 SLOAD DUP2 MSTORE SWAP1 PUSH1 0x1 ADD SWAP1 PUSH1 0x20 ADD DUP1 DUP4 GT PUSH2 0x19E8 JUMPI DUP3 SWAP1 SUB PUSH1 0x1F AND DUP3 ADD SWAP2 JUMPDEST POP POP POP POP POP DUP6 DUP3 DUP2 MLOAD DUP2 LT PUSH2 0x1A1C JUMPI PUSH2 0x1A1C PUSH2 0x273E JUMP JUMPDEST PUSH1 0x20 MUL PUSH1 0x20 ADD ADD DUP2 SWAP1 MSTORE POP PUSH1 0x5 DUP2 DUP2 SLOAD DUP2 LT PUSH2 0x1A3A JUMPI PUSH2 0x1A3A PUSH2 0x273E JUMP JUMPDEST SWAP1 PUSH1 0x0 MSTORE PUSH1 0x20 PUSH1 0x0 KECCAK256 SWAP1 PUSH1 0x5 MUL ADD PUSH1 0x2 ADD SLOAD DUP5 DUP3 DUP2 MLOAD DUP2 LT PUSH2 0x1A5E JUMPI PUSH2 0x1A5E PUSH2 0x273E JUMP JUMPDEST PUSH1 0x20 MUL PUSH1 0x20 ADD ADD DUP2 DUP2 MSTORE POP POP PUSH1 0x5 DUP2 DUP2 SLOAD DUP2 LT PUSH2 0x1A7D JUMPI PUSH2 0x1A7D PUSH2 0x273E JUMP JUMPDEST SWAP1 PUSH1 0x0 MSTORE PUSH1 0x20 PUSH1 0x0 KECCAK256 SWAP1 PUSH1 0x5 MUL ADD PUSH1 0x3 ADD SLOAD DUP4 DUP3 DUP2 MLOAD DUP2 LT PUSH2 0x1AA1 JUMPI PUSH2 0x1AA1 PUSH2 0x273E JUMP JUMPDEST PUSH1 0x20 SWAP1 DUP2 MUL SWAP2 SWAP1 SWAP2 ADD ADD MSTORE DUP1 PUSH2 0x1AB6 DUP2 PUSH2 0x276A JUMP JUMPDEST SWAP2 POP POP PUSH2 0x1955 JUMP JUMPDEST POP POP SWAP1 SWAP2 SWAP3 JUMP JUMPDEST PUSH32 0x0 TIMESTAMP LT ISZERO PUSH2 0x1B35 JUMPI PUSH1 0x40 MLOAD PUSH3 0x461BCD PUSH1 0xE5 SHL DUP2 MSTORE PUSH1 0x20 PUSH1 0x4 DUP3 ADD MSTORE PUSH1 0x1B PUSH1 0x24 DUP3 ADD MSTORE PUSH32 0x566F74696E6720706572696F64206E6F7420656E646564207965740000000000 PUSH1 0x44 DUP3 ADD MSTORE PUSH1 0x64 ADD PUSH2 0x948 JUMP JUMPDEST PUSH1 0x40 MLOAD PUSH32 0x7A19ED057DB79E3C2FA0B97A54B43BEF4FCE74B31BB6C01AF514B9A18A7F70AB SWAP1 PUSH1 0x0 SWAP1 LOG1 PUSH1 0x40 MLOAD PUSH32 0xA5D8DEF0776A3F5DAA22ACF078D5D04C7B0327FEEDDECDF16C5FEAA067CFF819 SWAP1 PUSH1 0x0 SWAP1 LOG1 JUMP JUMPDEST PUSH32 0x0 TIMESTAMP LT PUSH2 0x1BC9 JUMPI PUSH1 0x40 MLOAD PUSH4 0x3DA5A43 PUSH1 0xE6 SHL DUP2 MSTORE PUSH1 0x4 ADD PUSH1 0x40 MLOAD DUP1 SWAP2 SUB SWAP1 REVERT JUMPDEST PUSH8 0x2C68AF0BB140000 PUSH32 0x0 PUSH1 0x1 PUSH1 0x1 PUSH1 0xA0 SHL SUB AND BALANCE LT ISZERO PUSH2 0x1C55 JUMPI PUSH1 0x40 MLOAD PUSH3 0xFAE2D5 PUSH1 0xE2 SHL DUP2 MSTORE PUSH8 0x2C68AF0BB140000 PUSH1 0x4 DUP3 ADD MSTORE PUSH1 0x1 PUSH1 0x1 PUSH1 0xA0 SHL SUB PUSH32 0x0 AND BALANCE PUSH1 0x24 DUP3 ADD MSTORE PUSH1 0x44 ADD PUSH2 0x948 JUMP JUMPDEST PUSH2 0x1C5F DUP7 DUP7 PUSH2 0x20F9 JUMP JUMPDEST PUSH2 0x1C7C JUMPI PUSH1 0x40 MLOAD PUSH4 0x556FC8E3 PUSH1 0xE1 SHL DUP2 MSTORE PUSH1 0x4 ADD PUSH1 0x40 MLOAD DUP1 SWAP2 SUB SWAP1 REVERT JUMPDEST PUSH1 0x2 DUP7 DUP7 PUSH1 0x40 MLOAD PUSH2 0x1C8E SWAP3 SWAP2 SWAP1 PUSH2 0x2783 JUMP JUMPDEST SWAP1 DUP2 MSTORE PUSH1 0x40 MLOAD SWAP1 DUP2 SWAP1 SUB PUSH1 0x20 ADD SWAP1 KECCAK256 SLOAD PUSH1 0xFF AND ISZERO PUSH2 0x1CBF JUMPI PUSH1 0x40 MLOAD PUSH4 0x341F54FD PUSH1 0xE0 SHL DUP2 MSTORE PUSH1 0x4 ADD PUSH1 0x40 MLOAD DUP1 SWAP2 SUB SWAP1 REVERT JUMPDEST PUSH2 0x1CCD DUP7 DUP7 DUP7 DUP7 DUP7 DUP7 PUSH2 0x1E6A JUMP JUMPDEST PUSH2 0x1CEA JUMPI PUSH1 0x40 MLOAD PUSH4 0x8BAA579F PUSH1 0xE0 SHL DUP2 MSTORE PUSH1 0x4 ADD PUSH1 0x40 MLOAD DUP1 SWAP2 SUB SWAP1 REVERT JUMPDEST PUSH1 0x0 DUP7 DUP7 PUSH1 0x40 MLOAD PUSH1 0x20 ADD PUSH2 0x1CFF SWAP3 SWAP2 SWAP1 PUSH2 0x2783 JUMP JUMPDEST PUSH1 0x40 MLOAD PUSH1 0x20 DUP2 DUP4 SUB SUB DUP2 MSTORE SWAP1 PUSH1 0x40 MSTORE DUP1 MLOAD SWAP1 PUSH1 0x20 ADD KECCAK256 SWAP1 POP PUSH1 0x0 DUP6 DUP6 PUSH1 0x40 MLOAD PUSH1 0x20 ADD PUSH2 0x1D2C SWAP3 SWAP2 SWAP1 PUSH2 0x2783 JUMP JUMPDEST PUSH1 0x40 MLOAD PUSH1 0x20 DUP2 DUP4 SUB SUB DUP2 MSTORE SWAP1 PUSH1 0x40 MSTORE DUP1 MLOAD SWAP1 PUSH1 0x20 ADD KECCAK256 SWAP1 POP PUSH1 0x0 DUP5 DUP5 PUSH1 0x40 MLOAD PUSH2 0x1D56 SWAP3 SWAP2 SWAP1 PUSH2 0x2783 JUMP JUMPDEST PUSH1 0x40 MLOAD DUP1 SWAP2 SUB SWAP1 KECCAK256 SWAP1 POP PUSH1 0x40 MLOAD DUP1 PUSH1 0x80 ADD PUSH1 0x40 MSTORE DUP1 PUSH1 0x1 ISZERO ISZERO DUP2 MSTORE PUSH1 0x20 ADD DUP4 DUP2 MSTORE PUSH1 0x20 ADD DUP5 DUP2 MSTORE PUSH1 0x20 ADD DUP3 DUP2 MSTORE POP PUSH1 0x2 DUP11 DUP11 PUSH1 0x40 MLOAD PUSH2 0x1D96 SWAP3 SWAP2 SWAP1 PUSH2 0x2783 JUMP JUMPDEST SWAP1 DUP2 MSTORE PUSH1 0x40 DUP1 MLOAD PUSH1 0x20 SWAP3 DUP2 SWAP1 SUB DUP4 ADD DUP2 KECCAK256 DUP5 MLOAD DUP2 SLOAD PUSH1 0xFF NOT AND SWAP1 ISZERO ISZERO OR DUP2 SSTORE SWAP3 DUP5 ADD MLOAD PUSH1 0x1 DUP5 ADD SSTORE SWAP1 DUP4 ADD MLOAD PUSH1 0x2 DUP4 ADD SSTORE PUSH1 0x60 SWAP1 SWAP3 ADD MLOAD PUSH1 0x3 SWAP1 SWAP2 ADD SSTORE DUP8 SWAP1 DUP8 SWAP1 PUSH1 0x4 SWAP1 PUSH2 0x1DE7 SWAP1 DUP14 SWAP1 DUP14 SWAP1 PUSH2 0x2783 JUMP JUMPDEST SWAP1 DUP2 MSTORE PUSH1 0x20 ADD PUSH1 0x40 MLOAD DUP1 SWAP2 SUB SWAP1 KECCAK256 SWAP2 DUP3 PUSH2 0x1E02 SWAP3 SWAP2 SWAP1 PUSH2 0x2950 JUMP JUMPDEST POP PUSH1 0x7 SLOAD PUSH1 0x0 SWAP1 DUP2 MSTORE PUSH1 0x3 PUSH1 0x20 MSTORE PUSH1 0x40 SWAP1 KECCAK256 PUSH2 0x1E1F DUP10 DUP12 DUP4 PUSH2 0x2950 JUMP JUMPDEST POP PUSH1 0x7 DUP1 SLOAD SWAP1 PUSH1 0x0 PUSH2 0x1E30 DUP4 PUSH2 0x276A JUMP JUMPDEST SWAP2 SWAP1 POP SSTORE POP PUSH32 0x293DE1322DD4C6AF4A4629391E61363BA4064B3A1F9A24F7A2BF6C698DB458E6 DUP10 DUP10 DUP10 DUP10 PUSH1 0x40 MLOAD PUSH2 0xCF4 SWAP5 SWAP4 SWAP3 SWAP2 SWAP1 PUSH2 0x2A10 JUMP JUMPDEST PUSH1 0x0 DUP1 DUP8 DUP8 DUP8 DUP8 PUSH1 0x40 MLOAD PUSH1 0x20 ADD PUSH2 0x1E84 SWAP5 SWAP4 SWAP3 SWAP2 SWAP1 PUSH2 0x28F9 JUMP JUMPDEST PUSH1 0x40 MLOAD PUSH1 0x20 DUP2 DUP4 SUB SUB DUP2 MSTORE SWAP1 PUSH1 0x40 MSTORE DUP1 MLOAD SWAP1 PUSH1 0x20 ADD KECCAK256 SWAP1 POP PUSH1 0x0 DUP2 PUSH1 0x40 MLOAD PUSH1 0x20 ADD PUSH2 0x1EDB SWAP2 SWAP1 PUSH32 0x19457468657265756D205369676E6564204D6573736167653A0A333200000000 DUP2 MSTORE PUSH1 0x1C DUP2 ADD SWAP2 SWAP1 SWAP2 MSTORE PUSH1 0x3C ADD SWAP1 JUMP JUMPDEST PUSH1 0x40 MLOAD PUSH1 0x20 DUP2 DUP4 SUB SUB DUP2 MSTORE SWAP1 PUSH1 0x40 MSTORE DUP1 MLOAD SWAP1 PUSH1 0x20 ADD KECCAK256 SWAP1 POP PUSH1 0x0 PUSH2 0x1F00 DUP3 DUP8 DUP8 PUSH2 0x157C JUMP JUMPDEST PUSH1 0x1 PUSH1 0x1 PUSH1 0xA0 SHL SUB AND PUSH20 0xCE8190E1EBE1BCE6C6685AE4B2F9EEE1FAA906E0 EQ SWAP4 POP POP POP POP SWAP7 SWAP6 POP POP POP POP POP POP JUMP JUMPDEST PUSH1 0x5 DUP2 DUP2 SLOAD DUP2 LT PUSH2 0x1F3E JUMPI PUSH1 0x0 DUP1 REVERT JUMPDEST PUSH1 0x0 SWAP2 DUP3 MSTORE PUSH1 0x20 SWAP1 SWAP2 KECCAK256 PUSH1 0x5 SWAP1 SWAP2 MUL ADD DUP1 SLOAD PUSH1 0x1 DUP3 ADD DUP1 SLOAD PUSH1 0xFF SWAP1 SWAP3 AND SWAP4 POP SWAP1 PUSH2 0x1F67 SWAP1 PUSH2 0x270A JUMP JUMPDEST DUP1 PUSH1 0x1F ADD PUSH1 0x20 DUP1 SWAP2 DIV MUL PUSH1 0x20 ADD PUSH1 0x40 MLOAD SWAP1 DUP2 ADD PUSH1 0x40 MSTORE DUP1 SWAP3 SWAP2 SWAP1 DUP2 DUP2 MSTORE PUSH1 0x20 ADD DUP3 DUP1 SLOAD PUSH2 0x1F93 SWAP1 PUSH2 0x270A JUMP JUMPDEST DUP1 ISZERO PUSH2 0x1FE0 JUMPI DUP1 PUSH1 0x1F LT PUSH2 0x1FB5 JUMPI PUSH2 0x100 DUP1 DUP4 SLOAD DIV MUL DUP4 MSTORE SWAP2 PUSH1 0x20 ADD SWAP2 PUSH2 0x1FE0 JUMP JUMPDEST DUP3 ADD SWAP2 SWAP1 PUSH1 0x0 MSTORE PUSH1 0x20 PUSH1 0x0 KECCAK256 SWAP1 JUMPDEST DUP2 SLOAD DUP2 MSTORE SWAP1 PUSH1 0x1 ADD SWAP1 PUSH1 0x20 ADD DUP1 DUP4 GT PUSH2 0x1FC3 JUMPI DUP3 SWAP1 SUB PUSH1 0x1F AND DUP3 ADD SWAP2 JUMPDEST POP POP POP POP PUSH1 0x2 DUP4 ADD SLOAD PUSH1 0x3 DUP5 ADD SLOAD PUSH1 0x4 SWAP1 SWAP5 ADD SLOAD SWAP3 SWAP4 SWAP1 SWAP3 SWAP1 SWAP2 POP PUSH1 0x1 PUSH1 0x1 PUSH1 0xA0 SHL SUB AND DUP6 JUMP JUMPDEST PUSH1 0x60 PUSH1 0x8 DUP1 SLOAD DUP1 PUSH1 0x20 MUL PUSH1 0x20 ADD PUSH1 0x40 MLOAD SWAP1 DUP2 ADD PUSH1 0x40 MSTORE DUP1 SWAP3 SWAP2 SWAP1 DUP2 DUP2 MSTORE PUSH1 0x20 ADD PUSH1 0x0 SWAP1 JUMPDEST DUP3 DUP3 LT ISZERO PUSH2 0x1573 JUMPI DUP4 DUP3 SWAP1 PUSH1 0x0 MSTORE PUSH1 0x20 PUSH1 0x0 KECCAK256 SWAP1 PUSH1 0x2 MUL ADD PUSH1 0x40 MLOAD DUP1 PUSH1 0x40 ADD PUSH1 0x40 MSTORE SWAP1 DUP2 PUSH1 0x0 DUP3 ADD DUP1 SLOAD PUSH2 0x205E SWAP1 PUSH2 0x270A JUMP JUMPDEST DUP1 PUSH1 0x1F ADD PUSH1 0x20 DUP1 SWAP2 DIV MUL PUSH1 0x20 ADD PUSH1 0x40 MLOAD SWAP1 DUP2 ADD PUSH1 0x40 MSTORE DUP1 SWAP3 SWAP2 SWAP1 DUP2 DUP2 MSTORE PUSH1 0x20 ADD DUP3 DUP1 SLOAD PUSH2 0x208A SWAP1 PUSH2 0x270A JUMP JUMPDEST DUP1 ISZERO PUSH2 0x20D7 JUMPI DUP1 PUSH1 0x1F LT PUSH2 0x20AC JUMPI PUSH2 0x100 DUP1 DUP4 SLOAD DIV MUL DUP4 MSTORE SWAP2 PUSH1 0x20 ADD SWAP2 PUSH2 0x20D7 JUMP JUMPDEST DUP3 ADD SWAP2 SWAP1 PUSH1 0x0 MSTORE PUSH1 0x20 PUSH1 0x0 KECCAK256 SWAP1 JUMPDEST DUP2 SLOAD DUP2 MSTORE SWAP1 PUSH1 0x1 ADD SWAP1 PUSH1 0x20 ADD DUP1 DUP4 GT PUSH2 0x20BA JUMPI DUP3 SWAP1 SUB PUSH1 0x1F AND DUP3 ADD SWAP2 JUMPDEST POP POP POP POP POP DUP2 MSTORE PUSH1 0x20 ADD PUSH1 0x1 DUP3 ADD SLOAD DUP2 MSTORE POP POP DUP2 MSTORE PUSH1 0x20 ADD SWAP1 PUSH1 0x1 ADD SWAP1 PUSH2 0x202B JUMP JUMPDEST PUSH1 0x0 DUP3 DUP3 DUP3 JUMPDEST PUSH1 0x0 SLOAD DUP2 LT ISZERO PUSH2 0x227D JUMPI PUSH1 0x0 DUP1 DUP3 DUP2 SLOAD DUP2 LT PUSH2 0x211D JUMPI PUSH2 0x211D PUSH2 0x273E JUMP JUMPDEST SWAP1 PUSH1 0x0 MSTORE PUSH1 0x20 PUSH1 0x0 KECCAK256 ADD DUP1 SLOAD PUSH2 0x2132 SWAP1 PUSH2 0x270A JUMP JUMPDEST DUP1 PUSH1 0x1F ADD PUSH1 0x20 DUP1 SWAP2 DIV MUL PUSH1 0x20 ADD PUSH1 0x40 MLOAD SWAP1 DUP2 ADD PUSH1 0x40 MSTORE DUP1 SWAP3 SWAP2 SWAP1 DUP2 DUP2 MSTORE PUSH1 0x20 ADD DUP3 DUP1 SLOAD PUSH2 0x215E SWAP1 PUSH2 0x270A JUMP JUMPDEST DUP1 ISZERO PUSH2 0x21AB JUMPI DUP1 PUSH1 0x1F LT PUSH2 0x2180 JUMPI PUSH2 0x100 DUP1 DUP4 SLOAD DIV MUL DUP4 MSTORE SWAP2 PUSH1 0x20 ADD SWAP2 PUSH2 0x21AB JUMP JUMPDEST DUP3 ADD SWAP2 SWAP1 PUSH1 0x0 MSTORE PUSH1 0x20 PUSH1 0x0 KECCAK256 SWAP1 JUMPDEST DUP2 SLOAD DUP2 MSTORE SWAP1 PUSH1 0x1 ADD SWAP1 PUSH1 0x20 ADD DUP1 DUP4 GT PUSH2 0x218E JUMPI DUP3 SWAP1 SUB PUSH1 0x1F AND DUP3 ADD SWAP2 JUMPDEST POP POP DUP4 MLOAD SWAP4 SWAP5 POP POP POP POP DUP4 LT ISZERO PUSH2 0x21C2 JUMPI POP PUSH2 0x226B JUMP JUMPDEST PUSH1 0x1 PUSH1 0x0 JUMPDEST DUP3 MLOAD DUP2 LT ISZERO PUSH2 0x2253 JUMPI DUP3 DUP2 DUP2 MLOAD DUP2 LT PUSH2 0x21E2 JUMPI PUSH2 0x21E2 PUSH2 0x273E JUMP JUMPDEST ADD PUSH1 0x20 ADD MLOAD DUP4 MLOAD PUSH1 0x1 PUSH1 0x1 PUSH1 0xF8 SHL SUB NOT SWAP1 SWAP2 AND SWAP1 DUP8 SWAP1 DUP8 SWAP1 DUP5 SWAP1 PUSH2 0x2206 SWAP1 DUP4 PUSH2 0x28A1 JUMP JUMPDEST PUSH2 0x2210 SWAP2 SWAP1 PUSH2 0x2A37 JUMP JUMPDEST DUP2 DUP2 LT PUSH2 0x221F JUMPI PUSH2 0x221F PUSH2 0x273E JUMP JUMPDEST SWAP1 POP ADD CALLDATALOAD PUSH1 0xF8 SHR PUSH1 0xF8 SHL PUSH1 0x1 PUSH1 0x1 PUSH1 0xF8 SHL SUB NOT AND EQ PUSH2 0x2241 JUMPI PUSH1 0x0 SWAP2 POP PUSH2 0x2253 JUMP JUMPDEST DUP1 PUSH2 0x224B DUP2 PUSH2 0x276A JUMP JUMPDEST SWAP2 POP POP PUSH2 0x21C7 JUMP JUMPDEST POP DUP1 ISZERO PUSH2 0x2268 JUMPI PUSH1 0x1 SWAP6 POP POP POP POP POP POP PUSH2 0xD49 JUMP JUMPDEST POP POP JUMPDEST DUP1 PUSH2 0x2275 DUP2 PUSH2 0x276A JUMP JUMPDEST SWAP2 POP POP PUSH2 0x20FF JUMP JUMPDEST POP PUSH1 0x0 SWAP6 SWAP5 POP POP POP POP POP JUMP JUMPDEST PUSH1 0x0 JUMPDEST DUP4 DUP2 LT ISZERO PUSH2 0x22A4 JUMPI DUP2 DUP2 ADD MLOAD DUP4 DUP3 ADD MSTORE PUSH1 0x20 ADD PUSH2 0x228C JUMP JUMPDEST POP POP PUSH1 0x0 SWAP2 ADD MSTORE JUMP JUMPDEST PUSH1 0x0 DUP2 MLOAD DUP1 DUP5 MSTORE PUSH2 0x22C5 DUP2 PUSH1 0x20 DUP7 ADD PUSH1 0x20 DUP7 ADD PUSH2 0x2289 JUMP JUMPDEST PUSH1 0x1F ADD PUSH1 0x1F NOT AND SWAP3 SWAP1 SWAP3 ADD PUSH1 0x20 ADD SWAP3 SWAP2 POP POP JUMP JUMPDEST PUSH1 0x0 DUP3 DUP3 MLOAD DUP1 DUP6 MSTORE PUSH1 0x20 DUP1 DUP7 ADD SWAP6 POP DUP1 DUP3 PUSH1 0x5 SHL DUP5 ADD ADD DUP2 DUP7 ADD PUSH1 0x0 JUMPDEST DUP5 DUP2 LT ISZERO PUSH2 0x2324 JUMPI PUSH1 0x1F NOT DUP7 DUP5 SUB ADD DUP10 MSTORE PUSH2 0x2312 DUP4 DUP4 MLOAD PUSH2 0x22AD JUMP JUMPDEST SWAP9 DUP5 ADD SWAP9 SWAP3 POP SWAP1 DUP4 ADD SWAP1 PUSH1 0x1 ADD PUSH2 0x22F6 JUMP JUMPDEST POP SWAP1 SWAP8 SWAP7 POP POP POP POP POP POP POP JUMP JUMPDEST PUSH1 0x20 DUP2 MSTORE PUSH1 0x0 PUSH2 0x2344 PUSH1 0x20 DUP4 ADD DUP5 PUSH2 0x22D9 JUMP JUMPDEST SWAP4 SWAP3 POP POP POP JUMP JUMPDEST PUSH1 0x20 DUP2 MSTORE PUSH1 0x0 PUSH2 0x2344 PUSH1 0x20 DUP4 ADD DUP5 PUSH2 0x22AD JUMP JUMPDEST PUSH1 0x0 DUP1 DUP4 PUSH1 0x1F DUP5 ADD SLT PUSH2 0x2370 JUMPI PUSH1 0x0 DUP1 REVERT JUMPDEST POP DUP2 CALLDATALOAD PUSH1 0x1 PUSH1 0x1 PUSH1 0x40 SHL SUB DUP2 GT ISZERO PUSH2 0x2387 JUMPI PUSH1 0x0 DUP1 REVERT JUMPDEST PUSH1 0x20 DUP4 ADD SWAP2 POP DUP4 PUSH1 0x20 DUP3 DUP6 ADD ADD GT ISZERO PUSH2 0x239F JUMPI PUSH1 0x0 DUP1 REVERT JUMPDEST SWAP3 POP SWAP3 SWAP1 POP JUMP JUMPDEST PUSH1 0x0 DUP1 PUSH1 0x0 DUP1 PUSH1 0x0 DUP1 PUSH1 0x0 PUSH1 0x80 DUP9 DUP11 SUB SLT ISZERO PUSH2 0x23C1 JUMPI PUSH1 0x0 DUP1 REVERT JUMPDEST DUP8 CALLDATALOAD PUSH1 0x1 PUSH1 0x1 PUSH1 0x40 SHL SUB DUP1 DUP3 GT ISZERO PUSH2 0x23D8 JUMPI PUSH1 0x0 DUP1 REVERT JUMPDEST PUSH2 0x23E4 DUP12 DUP4 DUP13 ADD PUSH2 0x235E JUMP JUMPDEST SWAP1 SWAP10 POP SWAP8 POP PUSH1 0x20 DUP11 ADD CALLDATALOAD SWAP2 POP DUP1 DUP3 GT ISZERO PUSH2 0x23FD JUMPI PUSH1 0x0 DUP1 REVERT JUMPDEST PUSH2 0x2409 DUP12 DUP4 DUP13 ADD PUSH2 0x235E JUMP JUMPDEST SWAP1 SWAP8 POP SWAP6 POP PUSH1 0x40 DUP11 ADD CALLDATALOAD SWAP2 POP DUP1 DUP3 GT ISZERO PUSH2 0x2422 JUMPI PUSH1 0x0 DUP1 REVERT JUMPDEST POP PUSH2 0x242F DUP11 DUP3 DUP12 ADD PUSH2 0x235E JUMP JUMPDEST SWAP1 SWAP5 POP SWAP3 POP POP PUSH1 0x60 DUP9 ADD CALLDATALOAD PUSH1 0x1 PUSH1 0x1 PUSH1 0xA0 SHL SUB DUP2 AND DUP2 EQ PUSH2 0x244F JUMPI PUSH1 0x0 DUP1 REVERT JUMPDEST DUP1 SWAP2 POP POP SWAP3 SWAP6 SWAP9 SWAP2 SWAP5 SWAP8 POP SWAP3 SWAP6 POP JUMP JUMPDEST PUSH1 0x0 DUP1 PUSH1 0x20 DUP4 DUP6 SUB SLT ISZERO PUSH2 0x2472 JUMPI PUSH1 0x0 DUP1 REVERT JUMPDEST DUP3 CALLDATALOAD PUSH1 0x1 PUSH1 0x1 PUSH1 0x40 SHL SUB DUP2 GT ISZERO PUSH2 0x2488 JUMPI PUSH1 0x0 DUP1 REVERT JUMPDEST PUSH2 0x2494 DUP6 DUP3 DUP7 ADD PUSH2 0x235E JUMP JUMPDEST SWAP1 SWAP7 SWAP1 SWAP6 POP SWAP4 POP POP POP POP JUMP JUMPDEST PUSH1 0x0 PUSH1 0x20 DUP3 DUP5 SUB SLT ISZERO PUSH2 0x24B2 JUMPI PUSH1 0x0 DUP1 REVERT JUMPDEST POP CALLDATALOAD SWAP2 SWAP1 POP JUMP JUMPDEST PUSH1 0x40 DUP2 MSTORE PUSH1 0x0 PUSH2 0x24CC PUSH1 0x40 DUP4 ADD DUP6 PUSH2 0x22AD JUMP JUMPDEST SWAP1 POP DUP3 PUSH1 0x20 DUP4 ADD MSTORE SWAP4 SWAP3 POP POP POP JUMP JUMPDEST PUSH1 0x0 DUP1 PUSH1 0x0 DUP1 PUSH1 0x0 DUP1 PUSH1 0x60 DUP8 DUP10 SUB SLT ISZERO PUSH2 0x24F4 JUMPI PUSH1 0x0 DUP1 REVERT JUMPDEST DUP7 CALLDATALOAD PUSH1 0x1 PUSH1 0x1 PUSH1 0x40 SHL SUB DUP1 DUP3 GT ISZERO PUSH2 0x250B JUMPI PUSH1 0x0 DUP1 REVERT JUMPDEST PUSH2 0x2517 DUP11 DUP4 DUP12 ADD PUSH2 0x235E JUMP JUMPDEST SWAP1 SWAP9 POP SWAP7 POP PUSH1 0x20 DUP10 ADD CALLDATALOAD SWAP2 POP DUP1 DUP3 GT ISZERO PUSH2 0x2530 JUMPI PUSH1 0x0 DUP1 REVERT JUMPDEST PUSH2 0x253C DUP11 DUP4 DUP12 ADD PUSH2 0x235E JUMP JUMPDEST SWAP1 SWAP7 POP SWAP5 POP PUSH1 0x40 DUP10 ADD CALLDATALOAD SWAP2 POP DUP1 DUP3 GT ISZERO PUSH2 0x2555 JUMPI PUSH1 0x0 DUP1 REVERT JUMPDEST POP PUSH2 0x2562 DUP10 DUP3 DUP11 ADD PUSH2 0x235E JUMP JUMPDEST SWAP8 SWAP11 SWAP7 SWAP10 POP SWAP5 SWAP8 POP SWAP3 SWAP6 SWAP4 SWAP5 SWAP3 POP POP POP JUMP JUMPDEST PUSH1 0x0 DUP1 PUSH1 0x0 PUSH1 0x40 DUP5 DUP7 SUB SLT ISZERO PUSH2 0x2589 JUMPI PUSH1 0x0 DUP1 REVERT JUMPDEST DUP4 CALLDATALOAD SWAP3 POP PUSH1 0x20 DUP5 ADD CALLDATALOAD PUSH1 0x1 PUSH1 0x1 PUSH1 0x40 SHL SUB DUP2 GT ISZERO PUSH2 0x25A6 JUMPI PUSH1 0x0 DUP1 REVERT JUMPDEST PUSH2 0x25B2 DUP7 DUP3 DUP8 ADD PUSH2 0x235E JUMP JUMPDEST SWAP5 SWAP8 SWAP1 SWAP7 POP SWAP4 SWAP5 POP POP POP POP JUMP JUMPDEST PUSH1 0x0 DUP2 MLOAD DUP1 DUP5 MSTORE PUSH1 0x20 DUP1 DUP6 ADD SWAP5 POP DUP1 DUP5 ADD PUSH1 0x0 JUMPDEST DUP4 DUP2 LT ISZERO PUSH2 0x25EF JUMPI DUP2 MLOAD DUP8 MSTORE SWAP6 DUP3 ADD SWAP6 SWAP1 DUP3 ADD SWAP1 PUSH1 0x1 ADD PUSH2 0x25D3 JUMP JUMPDEST POP SWAP5 SWAP6 SWAP5 POP POP POP POP POP JUMP JUMPDEST PUSH1 0x60 DUP2 MSTORE PUSH1 0x0 PUSH2 0x260D PUSH1 0x60 DUP4 ADD DUP7 PUSH2 0x22D9 JUMP JUMPDEST DUP3 DUP2 SUB PUSH1 0x20 DUP5 ADD MSTORE PUSH2 0x261F DUP2 DUP7 PUSH2 0x25BF JUMP JUMPDEST SWAP1 POP DUP3 DUP2 SUB PUSH1 0x40 DUP5 ADD MSTORE PUSH2 0x2633 DUP2 DUP6 PUSH2 0x25BF JUMP JUMPDEST SWAP7 SWAP6 POP POP POP POP POP POP JUMP JUMPDEST DUP6 ISZERO ISZERO DUP2 MSTORE PUSH1 0xA0 PUSH1 0x20 DUP3 ADD MSTORE PUSH1 0x0 PUSH2 0x2658 PUSH1 0xA0 DUP4 ADD DUP8 PUSH2 0x22AD JUMP JUMPDEST PUSH1 0x40 DUP4 ADD SWAP6 SWAP1 SWAP6 MSTORE POP PUSH1 0x60 DUP2 ADD SWAP3 SWAP1 SWAP3 MSTORE PUSH1 0x1 PUSH1 0x1 PUSH1 0xA0 SHL SUB AND PUSH1 0x80 SWAP1 SWAP2 ADD MSTORE SWAP3 SWAP2 POP POP JUMP JUMPDEST PUSH1 0x0 PUSH1 0x20 DUP1 DUP4 ADD DUP2 DUP5 MSTORE DUP1 DUP6 MLOAD DUP1 DUP4 MSTORE PUSH1 0x40 SWAP3 POP DUP3 DUP7 ADD SWAP2 POP DUP3 DUP2 PUSH1 0x5 SHL DUP8 ADD ADD DUP5 DUP9 ADD PUSH1 0x0 JUMPDEST DUP4 DUP2 LT ISZERO PUSH2 0x26E6 JUMPI DUP9 DUP4 SUB PUSH1 0x3F NOT ADD DUP6 MSTORE DUP2 MLOAD DUP1 MLOAD DUP8 DUP6 MSTORE PUSH2 0x26C9 DUP9 DUP7 ADD DUP3 PUSH2 0x22AD JUMP JUMPDEST SWAP2 DUP10 ADD MLOAD SWAP5 DUP10 ADD SWAP5 SWAP1 SWAP5 MSTORE SWAP5 DUP8 ADD SWAP5 SWAP3 POP SWAP1 DUP7 ADD SWAP1 PUSH1 0x1 ADD PUSH2 0x26A5 JUMP JUMPDEST POP SWAP1 SWAP9 SWAP8 POP POP POP POP POP POP POP POP JUMP JUMPDEST PUSH4 0x4E487B71 PUSH1 0xE0 SHL PUSH1 0x0 MSTORE PUSH1 0x41 PUSH1 0x4 MSTORE PUSH1 0x24 PUSH1 0x0 REVERT JUMPDEST PUSH1 0x1 DUP2 DUP2 SHR SWAP1 DUP3 AND DUP1 PUSH2 0x271E JUMPI PUSH1 0x7F DUP3 AND SWAP2 POP JUMPDEST PUSH1 0x20 DUP3 LT DUP2 SUB PUSH2 0x651 JUMPI PUSH4 0x4E487B71 PUSH1 0xE0 SHL PUSH1 0x0 MSTORE PUSH1 0x22 PUSH1 0x4 MSTORE PUSH1 0x24 PUSH1 0x0 REVERT JUMPDEST PUSH4 0x4E487B71 PUSH1 0xE0 SHL PUSH1 0x0 MSTORE PUSH1 0x32 PUSH1 0x4 MSTORE PUSH1 0x24 PUSH1 0x0 REVERT JUMPDEST PUSH4 0x4E487B71 PUSH1 0xE0 SHL PUSH1 0x0 MSTORE PUSH1 0x11 PUSH1 0x4 MSTORE PUSH1 0x24 PUSH1 0x0 REVERT JUMPDEST PUSH1 0x0 PUSH1 0x1 DUP3 ADD PUSH2 0x277C JUMPI PUSH2 0x277C PUSH2 0x2754 JUMP JUMPDEST POP PUSH1 0x1 ADD SWAP1 JUMP JUMPDEST DUP2 DUP4 DUP3 CALLDATACOPY PUSH1 0x0 SWAP2 ADD SWAP1 DUP2 MSTORE SWAP2 SWAP1 POP JUMP JUMPDEST PUSH1 0x1F DUP3 GT ISZERO PUSH2 0x27DD JUMPI PUSH1 0x0 DUP2 DUP2 MSTORE PUSH1 0x20 DUP2 KECCAK256 PUSH1 0x1F DUP6 ADD PUSH1 0x5 SHR DUP2 ADD PUSH1 0x20 DUP7 LT ISZERO PUSH2 0x27BA JUMPI POP DUP1 JUMPDEST PUSH1 0x1F DUP6 ADD PUSH1 0x5 SHR DUP3 ADD SWAP2 POP JUMPDEST DUP2 DUP2 LT ISZERO PUSH2 0x27D9 JUMPI DUP3 DUP2 SSTORE PUSH1 0x1 ADD PUSH2 0x27C6 JUMP JUMPDEST POP POP POP JUMPDEST POP POP POP JUMP JUMPDEST DUP2 MLOAD PUSH1 0x1 PUSH1 0x1 PUSH1 0x40 SHL SUB DUP2 GT ISZERO PUSH2 0x27FB JUMPI PUSH2 0x27FB PUSH2 0x26F4 JUMP JUMPDEST PUSH2 0x280F DUP2 PUSH2 0x2809 DUP5 SLOAD PUSH2 0x270A JUMP JUMPDEST DUP5 PUSH2 0x2793 JUMP JUMPDEST PUSH1 0x20 DUP1 PUSH1 0x1F DUP4 GT PUSH1 0x1 DUP2 EQ PUSH2 0x2844 JUMPI PUSH1 0x0 DUP5 ISZERO PUSH2 0x282C JUMPI POP DUP6 DUP4 ADD MLOAD JUMPDEST PUSH1 0x0 NOT PUSH1 0x3 DUP7 SWAP1 SHL SHR NOT AND PUSH1 0x1 DUP6 SWAP1 SHL OR DUP6 SSTORE PUSH2 0x27D9 JUMP JUMPDEST PUSH1 0x0 DUP6 DUP2 MSTORE PUSH1 0x20 DUP2 KECCAK256 PUSH1 0x1F NOT DUP7 AND SWAP2 JUMPDEST DUP3 DUP2 LT ISZERO PUSH2 0x2873 JUMPI DUP9 DUP7 ADD MLOAD DUP3 SSTORE SWAP5 DUP5 ADD SWAP5 PUSH1 0x1 SWAP1 SWAP2 ADD SWAP1 DUP5 ADD PUSH2 0x2854 JUMP JUMPDEST POP DUP6 DUP3 LT ISZERO PUSH2 0x2891 JUMPI DUP8 DUP6 ADD MLOAD PUSH1 0x0 NOT PUSH1 0x3 DUP9 SWAP1 SHL PUSH1 0xF8 AND SHR NOT AND DUP2 SSTORE JUMPDEST POP POP POP POP POP PUSH1 0x1 SWAP1 DUP2 SHL ADD SWAP1 SSTORE POP JUMP JUMPDEST DUP2 DUP2 SUB DUP2 DUP2 GT ISZERO PUSH2 0xD49 JUMPI PUSH2 0xD49 PUSH2 0x2754 JUMP JUMPDEST DUP2 DUP4 MSTORE DUP2 DUP2 PUSH1 0x20 DUP6 ADD CALLDATACOPY POP PUSH1 0x0 DUP3 DUP3 ADD PUSH1 0x20 SWAP1 DUP2 ADD SWAP2 SWAP1 SWAP2 MSTORE PUSH1 0x1F SWAP1 SWAP2 ADD PUSH1 0x1F NOT AND SWAP1 SWAP2 ADD ADD SWAP1 JUMP JUMPDEST PUSH1 0x20 DUP2 MSTORE PUSH1 0x0 PUSH2 0x28F1 PUSH1 0x20 DUP4 ADD DUP5 DUP7 PUSH2 0x28B4 JUMP JUMPDEST SWAP5 SWAP4 POP POP POP POP JUMP JUMPDEST DUP4 DUP6 DUP3 CALLDATACOPY PUSH1 0x0 DUP5 DUP3 ADD PUSH1 0x0 DUP2 MSTORE DUP4 DUP6 DUP3 CALLDATACOPY PUSH1 0x0 SWAP4 ADD SWAP3 DUP4 MSTORE POP SWAP1 SWAP5 SWAP4 POP POP POP POP JUMP JUMPDEST PUSH1 0x0 DUP3 MLOAD PUSH2 0x292D DUP2 DUP5 PUSH1 0x20 DUP8 ADD PUSH2 0x2289 JUMP JUMPDEST SWAP2 SWAP1 SWAP2 ADD SWAP3 SWAP2 POP POP JUMP JUMPDEST PUSH1 0xFF DUP2 DUP2 AND DUP4 DUP3 AND ADD SWAP1 DUP2 GT ISZERO PUSH2 0xD49 JUMPI PUSH2 0xD49 PUSH2 0x2754 JUMP JUMPDEST PUSH1 0x1 PUSH1 0x1 PUSH1 0x40 SHL SUB DUP4 GT ISZERO PUSH2 0x2967 JUMPI PUSH2 0x2967 PUSH2 0x26F4 JUMP JUMPDEST PUSH2 0x297B DUP4 PUSH2 0x2975 DUP4 SLOAD PUSH2 0x270A JUMP JUMPDEST DUP4 PUSH2 0x2793 JUMP JUMPDEST PUSH1 0x0 PUSH1 0x1F DUP5 GT PUSH1 0x1 DUP2 EQ PUSH2 0x29AF JUMPI PUSH1 0x0 DUP6 ISZERO PUSH2 0x2997 JUMPI POP DUP4 DUP3 ADD CALLDATALOAD JUMPDEST PUSH1 0x0 NOT PUSH1 0x3 DUP8 SWAP1 SHL SHR NOT AND PUSH1 0x1 DUP7 SWAP1 SHL OR DUP4 SSTORE PUSH2 0x2A09 JUMP JUMPDEST PUSH1 0x0 DUP4 DUP2 MSTORE PUSH1 0x20 SWAP1 KECCAK256 PUSH1 0x1F NOT DUP7 AND SWAP1 DUP4 JUMPDEST DUP3 DUP2 LT ISZERO PUSH2 0x29E0 JUMPI DUP7 DUP6 ADD CALLDATALOAD DUP3 SSTORE PUSH1 0x20 SWAP5 DUP6 ADD SWAP5 PUSH1 0x1 SWAP1 SWAP3 ADD SWAP2 ADD PUSH2 0x29C0 JUMP JUMPDEST POP DUP7 DUP3 LT ISZERO PUSH2 0x29FD JUMPI PUSH1 0x0 NOT PUSH1 0xF8 DUP9 PUSH1 0x3 SHL AND SHR NOT DUP5 DUP8 ADD CALLDATALOAD AND DUP2 SSTORE JUMPDEST POP POP PUSH1 0x1 DUP6 PUSH1 0x1 SHL ADD DUP4 SSTORE JUMPDEST POP POP POP POP POP JUMP JUMPDEST PUSH1 0x40 DUP2 MSTORE PUSH1 0x0 PUSH2 0x2A24 PUSH1 0x40 DUP4 ADD DUP7 DUP9 PUSH2 0x28B4 JUMP JUMPDEST DUP3 DUP2 SUB PUSH1 0x20 DUP5 ADD MSTORE PUSH2 0x164D DUP2 DUP6 DUP8 PUSH2 0x28B4 JUMP JUMPDEST DUP1 DUP3 ADD DUP1 DUP3 GT ISZERO PUSH2 0xD49 JUMPI PUSH2 0xD49 PUSH2 0x2754 JUMP INVALID ADDRESS PUSH25 0x30326533386264316562363466393264363132633030393963 PUSH5 0x3134383935 PUSH4 0x62616561 CALLVALUE CALLDATACOPY CALLDATASIZE PUSH6 0x666637313164 PUSH6 0x343966623135 PUSH5 0x3361313366 BALANCE BALANCE PUSH3 0x636365 CALLDATALOAD LOG2 PUSH5 0x6970667358 0x22 SLT KECCAK256 PUSH5 0x54C2E38430 0xCA PUSH18 0x13C1256631CF35F442CA7D06DD3ECE0A1A4 PUSH13 0x13AA306FB064736F6C63430008 SGT STOP CALLER "},"methodIdentifiers":{"CASE_ID()":"fd9d994c","ELECTION_AUTHORITY()":"7282f837","ELECTION_AUTHORITY_PUBLIC_KEY()":"b117ac2a","MINIMUM_BALANCE()":"53498cdd","admin()":"f851a440","candidates(uint256)":"3477ee2e","castVote(string,string,bytes)":"392c4f34","endRegistration()":"4a8a62ab","endSubmission()":"0b810edc","endVoting()":"c3403ddf","getAdminBalance()":"f40ffcfb","getAllEAPublicKeys()":"4f39ed7e","getAllowedDomains()":"6847d741","getCandidates()":"06a49fce","getCaseId()":"74d3734a","getCurrentPhase()":"a3a40ea5","getElectionAuthorityPublicKey()":"0f627c3c","getRegisteredEmails()":"007874cb","getVoteCounts()":"ffc97b20","getVoterPublicKey(string)":"a69c02d9","getVotingKeySubmissions()":"ba9bd57e","getVotingPubKeys()":"096c89b3","hasGeneratedKeys(string)":"627286ba","isKeyImageUsed(bytes)":"320d48c2","recoverSigner(bytes32,bytes)":"97aba7f9","registerVoter(string,string,bytes)":"f098be02","registrationEndTime()":"dff7d2c7","registrationStartTime()":"9af5c09d","submissionEndTime()":"532eaca0","submitVotingPublicKey(string,string,bytes,address)":"31345497","verifySignature(string,string,bytes)":"fe7565e4","votingEndTime()":"1ea736e0","votingKeySubmissions(uint256)":"ff5c4a32"}}}}}